{
  "contractName": "BSMNFT721",
  "abi": [
    {
      "inputs": [],
      "stateMutability": "nonpayable",
      "type": "constructor"
    },
    {
      "anonymous": false,
      "inputs": [
        {
          "indexed": true,
          "internalType": "address",
          "name": "owner",
          "type": "address"
        },
        {
          "indexed": true,
          "internalType": "address",
          "name": "approved",
          "type": "address"
        },
        {
          "indexed": true,
          "internalType": "uint256",
          "name": "tokenId",
          "type": "uint256"
        }
      ],
      "name": "Approval",
      "type": "event"
    },
    {
      "anonymous": false,
      "inputs": [
        {
          "indexed": true,
          "internalType": "address",
          "name": "owner",
          "type": "address"
        },
        {
          "indexed": true,
          "internalType": "address",
          "name": "operator",
          "type": "address"
        },
        {
          "indexed": false,
          "internalType": "bool",
          "name": "approved",
          "type": "bool"
        }
      ],
      "name": "ApprovalForAll",
      "type": "event"
    },
    {
      "anonymous": false,
      "inputs": [
        {
          "indexed": true,
          "internalType": "address",
          "name": "previousOwner",
          "type": "address"
        },
        {
          "indexed": true,
          "internalType": "address",
          "name": "newOwner",
          "type": "address"
        }
      ],
      "name": "OwnershipTransferred",
      "type": "event"
    },
    {
      "anonymous": false,
      "inputs": [
        {
          "indexed": true,
          "internalType": "address",
          "name": "from",
          "type": "address"
        },
        {
          "indexed": true,
          "internalType": "address",
          "name": "to",
          "type": "address"
        },
        {
          "indexed": true,
          "internalType": "uint256",
          "name": "tokenId",
          "type": "uint256"
        }
      ],
      "name": "Transfer",
      "type": "event"
    },
    {
      "inputs": [
        {
          "internalType": "address",
          "name": "to",
          "type": "address"
        },
        {
          "internalType": "uint256",
          "name": "tokenId",
          "type": "uint256"
        }
      ],
      "name": "approve",
      "outputs": [],
      "stateMutability": "nonpayable",
      "type": "function"
    },
    {
      "inputs": [
        {
          "internalType": "address",
          "name": "owner",
          "type": "address"
        }
      ],
      "name": "balanceOf",
      "outputs": [
        {
          "internalType": "uint256",
          "name": "",
          "type": "uint256"
        }
      ],
      "stateMutability": "view",
      "type": "function",
      "constant": true
    },
    {
      "inputs": [
        {
          "internalType": "uint256",
          "name": "tokenId",
          "type": "uint256"
        }
      ],
      "name": "getApproved",
      "outputs": [
        {
          "internalType": "address",
          "name": "",
          "type": "address"
        }
      ],
      "stateMutability": "view",
      "type": "function",
      "constant": true
    },
    {
      "inputs": [
        {
          "internalType": "address",
          "name": "owner",
          "type": "address"
        },
        {
          "internalType": "address",
          "name": "operator",
          "type": "address"
        }
      ],
      "name": "isApprovedForAll",
      "outputs": [
        {
          "internalType": "bool",
          "name": "",
          "type": "bool"
        }
      ],
      "stateMutability": "view",
      "type": "function",
      "constant": true
    },
    {
      "inputs": [],
      "name": "maxNfts",
      "outputs": [
        {
          "internalType": "uint256",
          "name": "",
          "type": "uint256"
        }
      ],
      "stateMutability": "view",
      "type": "function",
      "constant": true
    },
    {
      "inputs": [],
      "name": "mintPrice",
      "outputs": [
        {
          "internalType": "uint256",
          "name": "",
          "type": "uint256"
        }
      ],
      "stateMutability": "view",
      "type": "function",
      "constant": true
    },
    {
      "inputs": [],
      "name": "name",
      "outputs": [
        {
          "internalType": "string",
          "name": "",
          "type": "string"
        }
      ],
      "stateMutability": "view",
      "type": "function",
      "constant": true
    },
    {
      "inputs": [],
      "name": "owner",
      "outputs": [
        {
          "internalType": "address",
          "name": "",
          "type": "address"
        }
      ],
      "stateMutability": "view",
      "type": "function",
      "constant": true
    },
    {
      "inputs": [
        {
          "internalType": "uint256",
          "name": "tokenId",
          "type": "uint256"
        }
      ],
      "name": "ownerOf",
      "outputs": [
        {
          "internalType": "address",
          "name": "",
          "type": "address"
        }
      ],
      "stateMutability": "view",
      "type": "function",
      "constant": true
    },
    {
      "inputs": [],
      "name": "renounceOwnership",
      "outputs": [],
      "stateMutability": "nonpayable",
      "type": "function"
    },
    {
      "inputs": [
        {
          "internalType": "address",
          "name": "from",
          "type": "address"
        },
        {
          "internalType": "address",
          "name": "to",
          "type": "address"
        },
        {
          "internalType": "uint256",
          "name": "tokenId",
          "type": "uint256"
        }
      ],
      "name": "safeTransferFrom",
      "outputs": [],
      "stateMutability": "nonpayable",
      "type": "function"
    },
    {
      "inputs": [
        {
          "internalType": "address",
          "name": "from",
          "type": "address"
        },
        {
          "internalType": "address",
          "name": "to",
          "type": "address"
        },
        {
          "internalType": "uint256",
          "name": "tokenId",
          "type": "uint256"
        },
        {
          "internalType": "bytes",
          "name": "data",
          "type": "bytes"
        }
      ],
      "name": "safeTransferFrom",
      "outputs": [],
      "stateMutability": "nonpayable",
      "type": "function"
    },
    {
      "inputs": [
        {
          "internalType": "address",
          "name": "operator",
          "type": "address"
        },
        {
          "internalType": "bool",
          "name": "approved",
          "type": "bool"
        }
      ],
      "name": "setApprovalForAll",
      "outputs": [],
      "stateMutability": "nonpayable",
      "type": "function"
    },
    {
      "inputs": [
        {
          "internalType": "bytes4",
          "name": "interfaceId",
          "type": "bytes4"
        }
      ],
      "name": "supportsInterface",
      "outputs": [
        {
          "internalType": "bool",
          "name": "",
          "type": "bool"
        }
      ],
      "stateMutability": "view",
      "type": "function",
      "constant": true
    },
    {
      "inputs": [],
      "name": "symbol",
      "outputs": [
        {
          "internalType": "string",
          "name": "",
          "type": "string"
        }
      ],
      "stateMutability": "view",
      "type": "function",
      "constant": true
    },
    {
      "inputs": [
        {
          "internalType": "uint256",
          "name": "tokenId",
          "type": "uint256"
        }
      ],
      "name": "tokenURI",
      "outputs": [
        {
          "internalType": "string",
          "name": "",
          "type": "string"
        }
      ],
      "stateMutability": "view",
      "type": "function",
      "constant": true
    },
    {
      "inputs": [],
      "name": "totalSupply",
      "outputs": [
        {
          "internalType": "uint256",
          "name": "",
          "type": "uint256"
        }
      ],
      "stateMutability": "view",
      "type": "function",
      "constant": true
    },
    {
      "inputs": [
        {
          "internalType": "address",
          "name": "from",
          "type": "address"
        },
        {
          "internalType": "address",
          "name": "to",
          "type": "address"
        },
        {
          "internalType": "uint256",
          "name": "tokenId",
          "type": "uint256"
        }
      ],
      "name": "transferFrom",
      "outputs": [],
      "stateMutability": "nonpayable",
      "type": "function"
    },
    {
      "inputs": [
        {
          "internalType": "address",
          "name": "newOwner",
          "type": "address"
        }
      ],
      "name": "transferOwnership",
      "outputs": [],
      "stateMutability": "nonpayable",
      "type": "function"
    },
    {
      "inputs": [],
      "name": "mint",
      "outputs": [],
      "stateMutability": "payable",
      "type": "function",
      "payable": true
    },
    {
      "inputs": [
        {
          "internalType": "uint256",
          "name": "tokenId",
          "type": "uint256"
        }
      ],
      "name": "priceOf",
      "outputs": [
        {
          "internalType": "int256",
          "name": "",
          "type": "int256"
        }
      ],
      "stateMutability": "view",
      "type": "function",
      "constant": true
    },
    {
      "inputs": [
        {
          "internalType": "uint256",
          "name": "tokenId",
          "type": "uint256"
        }
      ],
      "name": "buy",
      "outputs": [],
      "stateMutability": "payable",
      "type": "function",
      "payable": true
    },
    {
      "inputs": [],
      "name": "usdPrice",
      "outputs": [
        {
          "internalType": "int256",
          "name": "",
          "type": "int256"
        }
      ],
      "stateMutability": "view",
      "type": "function",
      "constant": true
    },
    {
      "inputs": [
        {
          "internalType": "uint256",
          "name": "tokenId",
          "type": "uint256"
        }
      ],
      "name": "usdPriceOf",
      "outputs": [
        {
          "internalType": "int256",
          "name": "",
          "type": "int256"
        }
      ],
      "stateMutability": "view",
      "type": "function",
      "constant": true
    }
  ],
  "bytecode": "0x60806040523480156200001157600080fd5b506040518060400160405280600681526020017f42534d4e465400000000000000000000000000000000000000000000000000008152506040518060400160405280600681526020017f42534d4e4654000000000000000000000000000000000000000000000000000081525081600090816200008f919062000467565b508060019081620000a1919062000467565b505050620000c4620000b86200011f60201b60201c565b6200012760201b60201c565b73694aa1769357215de4fac081bf1f309adc325306600960006101000a81548173ffffffffffffffffffffffffffffffffffffffff021916908373ffffffffffffffffffffffffffffffffffffffff1602179055506200054e565b600033905090565b6000600660009054906101000a900473ffffffffffffffffffffffffffffffffffffffff16905081600660006101000a81548173ffffffffffffffffffffffffffffffffffffffff021916908373ffffffffffffffffffffffffffffffffffffffff1602179055508173ffffffffffffffffffffffffffffffffffffffff168173ffffffffffffffffffffffffffffffffffffffff167f8be0079c531659141344cd1fd0a4f28419497f9722a3daafe3b4186f6b6457e060405160405180910390a35050565b600081519050919050565b7f4e487b7100000000000000000000000000000000000000000000000000000000600052604160045260246000fd5b7f4e487b7100000000000000000000000000000000000000000000000000000000600052602260045260246000fd5b600060028204905060018216806200026f57607f821691505b60208210810362000285576200028462000227565b5b50919050565b60008190508160005260206000209050919050565b60006020601f8301049050919050565b600082821b905092915050565b600060088302620002ef7fffffffffffffffffffffffffffffffffffffffffffffffffffffffffffffffff82620002b0565b620002fb8683620002b0565b95508019841693508086168417925050509392505050565b6000819050919050565b6000819050919050565b600062000348620003426200033c8462000313565b6200031d565b62000313565b9050919050565b6000819050919050565b620003648362000327565b6200037c62000373826200034f565b848454620002bd565b825550505050565b600090565b6200039362000384565b620003a081848462000359565b505050565b5b81811015620003c857620003bc60008262000389565b600181019050620003a6565b5050565b601f8211156200041757620003e1816200028b565b620003ec84620002a0565b81016020851015620003fc578190505b620004146200040b85620002a0565b830182620003a5565b50505b505050565b600082821c905092915050565b60006200043c600019846008026200041c565b1980831691505092915050565b600062000457838362000429565b9150826002028217905092915050565b6200047282620001ed565b67ffffffffffffffff8111156200048e576200048d620001f8565b5b6200049a825462000256565b620004a7828285620003cc565b600060209050601f831160018114620004df5760008415620004ca578287015190505b620004d6858262000449565b86555062000546565b601f198416620004ef866200028b565b60005b828110156200051957848901518255600182019150602085019450602081019050620004f2565b8683101562000539578489015162000535601f89168262000429565b8355505b6001600288020188555050505b505050505050565b613048806200055e6000396000f3fe60806040526004361061014b5760003560e01c8063715018a6116100b6578063b88d4fde1161006f578063b88d4fde14610473578063b9186d7d1461049c578063c87b56dd146104d9578063d96a094a14610516578063e985e9c514610532578063f2fde38b1461056f5761014b565b8063715018a61461037557806382b759e81461038c5780638da5cb5b146103c957806393f344c1146103f457806395d89b411461041f578063a22cb4651461044a5761014b565b806323b872dd1161010857806323b872dd1461025357806342842e0e1461027c5780636352211e146102a55780636619aa86146102e25780636817c76c1461030d57806370a08231146103385761014b565b806301ffc9a71461015057806306fdde031461018d578063081812fc146101b8578063095ea7b3146101f55780631249c58b1461021e57806318160ddd14610228575b600080fd5b34801561015c57600080fd5b5061017760048036038101906101729190611e99565b610598565b6040516101849190611ee1565b60405180910390f35b34801561019957600080fd5b506101a261067a565b6040516101af9190611f8c565b60405180910390f35b3480156101c457600080fd5b506101df60048036038101906101da9190611fe4565b61070c565b6040516101ec9190612052565b60405180910390f35b34801561020157600080fd5b5061021c60048036038101906102179190612099565b610752565b005b610226610869565b005b34801561023457600080fd5b5061023d6108e7565b60405161024a91906120e8565b60405180910390f35b34801561025f57600080fd5b5061027a60048036038101906102759190612103565b6108ed565b005b34801561028857600080fd5b506102a3600480360381019061029e9190612103565b61094d565b005b3480156102b157600080fd5b506102cc60048036038101906102c79190611fe4565b61096d565b6040516102d99190612052565b60405180910390f35b3480156102ee57600080fd5b506102f76109f3565b604051610304919061216f565b60405180910390f35b34801561031957600080fd5b50610322610a94565b60405161032f91906120e8565b60405180910390f35b34801561034457600080fd5b5061035f600480360381019061035a919061218a565b610a9f565b60405161036c91906120e8565b60405180910390f35b34801561038157600080fd5b5061038a610b56565b005b34801561039857600080fd5b506103b360048036038101906103ae9190611fe4565b610b6a565b6040516103c0919061216f565b60405180910390f35b3480156103d557600080fd5b506103de610b8e565b6040516103eb9190612052565b60405180910390f35b34801561040057600080fd5b50610409610bb8565b60405161041691906120e8565b60405180910390f35b34801561042b57600080fd5b50610434610bbd565b6040516104419190611f8c565b60405180910390f35b34801561045657600080fd5b50610471600480360381019061046c91906121e3565b610c4f565b005b34801561047f57600080fd5b5061049a60048036038101906104959190612358565b610c65565b005b3480156104a857600080fd5b506104c360048036038101906104be9190611fe4565b610cc7565b6040516104d0919061216f565b60405180910390f35b3480156104e557600080fd5b5061050060048036038101906104fb9190611fe4565b610ce4565b60405161050d9190611f8c565b60405180910390f35b610530600480360381019061052b9190611fe4565b610d4c565b005b34801561053e57600080fd5b50610559600480360381019061055491906123db565b610e74565b6040516105669190611ee1565b60405180910390f35b34801561057b57600080fd5b506105966004803603810190610591919061218a565b610f08565b005b60007f80ac58cd000000000000000000000000000000000000000000000000000000007bffffffffffffffffffffffffffffffffffffffffffffffffffffffff1916827bffffffffffffffffffffffffffffffffffffffffffffffffffffffff1916148061066357507f5b5e139f000000000000000000000000000000000000000000000000000000007bffffffffffffffffffffffffffffffffffffffffffffffffffffffff1916827bffffffffffffffffffffffffffffffffffffffffffffffffffffffff1916145b80610673575061067282610f8b565b5b9050919050565b6060600080546106899061244a565b80601f01602080910402602001604051908101604052809291908181526020018280546106b59061244a565b80156107025780601f106106d757610100808354040283529160200191610702565b820191906000526020600020905b8154815290600101906020018083116106e557829003601f168201915b5050505050905090565b600061071782610ff5565b6004600083815260200190815260200160002060009054906101000a900473ffffffffffffffffffffffffffffffffffffffff169050919050565b600061075d8261096d565b90508073ffffffffffffffffffffffffffffffffffffffff168373ffffffffffffffffffffffffffffffffffffffff16036107cd576040517f08c379a00000000000000000000000000000000000000000000000000000000081526004016107c4906124ed565b60405180910390fd5b8073ffffffffffffffffffffffffffffffffffffffff166107ec611040565b73ffffffffffffffffffffffffffffffffffffffff16148061081b575061081a81610815611040565b610e74565b5b61085a576040517f08c379a00000000000000000000000000000000000000000000000000000000081526004016108519061257f565b60405180910390fd5b6108648383611048565b505050565b600560075411156108af576040517f08c379a00000000000000000000000000000000000000000000000000000000081526004016108a690612611565b60405180910390fd5b6007600081546001019190508190555034600860006007548152602001908152602001600020819055506108e533600754611101565b565b60075481565b6108fe6108f8611040565b8261131e565b61093d576040517f08c379a0000000000000000000000000000000000000000000000000000000008152600401610934906126a3565b60405180910390fd5b6109488383836113b3565b505050565b61096883838360405180602001604052806000815250610c65565b505050565b600080610979836116ac565b9050600073ffffffffffffffffffffffffffffffffffffffff168173ffffffffffffffffffffffffffffffffffffffff16036109ea576040517f08c379a00000000000000000000000000000000000000000000000000000000081526004016109e19061270f565b60405180910390fd5b80915050919050565b600080600960009054906101000a900473ffffffffffffffffffffffffffffffffffffffff1673ffffffffffffffffffffffffffffffffffffffff1663feaf968c6040518163ffffffff1660e01b815260040160a060405180830381865afa158015610a63573d6000803e3d6000fd5b505050506040513d601f19601f82011682018060405250810190610a8791906127b2565b5050509150508091505090565b662386f26fc1000081565b60008073ffffffffffffffffffffffffffffffffffffffff168273ffffffffffffffffffffffffffffffffffffffff1603610b0f576040517f08c379a0000000000000000000000000000000000000000000000000000000008152600401610b069061289f565b60405180910390fd5b600360008373ffffffffffffffffffffffffffffffffffffffff1673ffffffffffffffffffffffffffffffffffffffff168152602001908152602001600020549050919050565b610b5e6116e9565b610b686000611767565b565b6000610b746109f3565b610b7d83610cc7565b610b8791906128ee565b9050919050565b6000600660009054906101000a900473ffffffffffffffffffffffffffffffffffffffff16905090565b600581565b606060018054610bcc9061244a565b80601f0160208091040260200160405190810160405280929190818152602001828054610bf89061244a565b8015610c455780601f10610c1a57610100808354040283529160200191610c45565b820191906000526020600020905b815481529060010190602001808311610c2857829003601f168201915b5050505050905090565b610c61610c5a611040565b838361182d565b5050565b610c76610c70611040565b8361131e565b610cb5576040517f08c379a0000000000000000000000000000000000000000000000000000000008152600401610cac906126a3565b60405180910390fd5b610cc184848484611999565b50505050565b600060086000838152602001908152602001600020549050919050565b6060610cef82610ff5565b6000610cf96119f5565b90506000815111610d195760405180602001604052806000815250610d44565b80610d2384611a15565b604051602001610d349291906129a2565b6040516020818303038152906040525b915050919050565b6000600860008381526020019081526020016000205413610da2576040517f08c379a0000000000000000000000000000000000000000000000000000000008152600401610d9990612a12565b60405180910390fd5b60086000828152602001908152602001600020543413610df7576040517f08c379a0000000000000000000000000000000000000000000000000000000008152600401610dee90612aa4565b60405180910390fd5b610e008161096d565b73ffffffffffffffffffffffffffffffffffffffff166108fc349081150290604051600060405180830381858888f19350505050158015610e45573d6000803e3d6000fd5b50610e59610e528261096d565b338361094d565b34600860008381526020019081526020016000208190555050565b6000600560008473ffffffffffffffffffffffffffffffffffffffff1673ffffffffffffffffffffffffffffffffffffffff16815260200190815260200160002060008373ffffffffffffffffffffffffffffffffffffffff1673ffffffffffffffffffffffffffffffffffffffff16815260200190815260200160002060009054906101000a900460ff16905092915050565b610f106116e9565b600073ffffffffffffffffffffffffffffffffffffffff168173ffffffffffffffffffffffffffffffffffffffff1603610f7f576040517f08c379a0000000000000000000000000000000000000000000000000000000008152600401610f7690612b36565b60405180910390fd5b610f8881611767565b50565b60007f01ffc9a7000000000000000000000000000000000000000000000000000000007bffffffffffffffffffffffffffffffffffffffffffffffffffffffff1916827bffffffffffffffffffffffffffffffffffffffffffffffffffffffff1916149050919050565b610ffe81611ae3565b61103d576040517f08c379a00000000000000000000000000000000000000000000000000000000081526004016110349061270f565b60405180910390fd5b50565b600033905090565b816004600083815260200190815260200160002060006101000a81548173ffffffffffffffffffffffffffffffffffffffff021916908373ffffffffffffffffffffffffffffffffffffffff160217905550808273ffffffffffffffffffffffffffffffffffffffff166110bb8361096d565b73ffffffffffffffffffffffffffffffffffffffff167f8c5be1e5ebec7d5bd14f71427d1e84f3dd0314c0f7b2291e5b200ac8c7c3b92560405160405180910390a45050565b600073ffffffffffffffffffffffffffffffffffffffff168273ffffffffffffffffffffffffffffffffffffffff1603611170576040517f08c379a000000000000000000000000000000000000000000000000000000000815260040161116790612ba2565b60405180910390fd5b61117981611ae3565b156111b9576040517f08c379a00000000000000000000000000000000000000000000000000000000081526004016111b090612c0e565b60405180910390fd5b6111c7600083836001611b24565b6111d081611ae3565b15611210576040517f08c379a000000000000000000000000000000000000000000000000000000000815260040161120790612c0e565b60405180910390fd5b6001600360008473ffffffffffffffffffffffffffffffffffffffff1673ffffffffffffffffffffffffffffffffffffffff16815260200190815260200160002060008282540192505081905550816002600083815260200190815260200160002060006101000a81548173ffffffffffffffffffffffffffffffffffffffff021916908373ffffffffffffffffffffffffffffffffffffffff160217905550808273ffffffffffffffffffffffffffffffffffffffff16600073ffffffffffffffffffffffffffffffffffffffff167fddf252ad1be2c89b69c2b068fc378daa952ba7f163c4a11628f55a4df523b3ef60405160405180910390a461131a600083836001611b2a565b5050565b60008061132a8361096d565b90508073ffffffffffffffffffffffffffffffffffffffff168473ffffffffffffffffffffffffffffffffffffffff16148061136c575061136b8185610e74565b5b806113aa57508373ffffffffffffffffffffffffffffffffffffffff166113928461070c565b73ffffffffffffffffffffffffffffffffffffffff16145b91505092915050565b8273ffffffffffffffffffffffffffffffffffffffff166113d38261096d565b73ffffffffffffffffffffffffffffffffffffffff1614611429576040517f08c379a000000000000000000000000000000000000000000000000000000000815260040161142090612ca0565b60405180910390fd5b600073ffffffffffffffffffffffffffffffffffffffff168273ffffffffffffffffffffffffffffffffffffffff1603611498576040517f08c379a000000000000000000000000000000000000000000000000000000000815260040161148f90612d32565b60405180910390fd5b6114a58383836001611b24565b8273ffffffffffffffffffffffffffffffffffffffff166114c58261096d565b73ffffffffffffffffffffffffffffffffffffffff161461151b576040517f08c379a000000000000000000000000000000000000000000000000000000000815260040161151290612ca0565b60405180910390fd5b6004600082815260200190815260200160002060006101000a81549073ffffffffffffffffffffffffffffffffffffffff02191690556001600360008573ffffffffffffffffffffffffffffffffffffffff1673ffffffffffffffffffffffffffffffffffffffff168152602001908152602001600020600082825403925050819055506001600360008473ffffffffffffffffffffffffffffffffffffffff1673ffffffffffffffffffffffffffffffffffffffff16815260200190815260200160002060008282540192505081905550816002600083815260200190815260200160002060006101000a81548173ffffffffffffffffffffffffffffffffffffffff021916908373ffffffffffffffffffffffffffffffffffffffff160217905550808273ffffffffffffffffffffffffffffffffffffffff168473ffffffffffffffffffffffffffffffffffffffff167fddf252ad1be2c89b69c2b068fc378daa952ba7f163c4a11628f55a4df523b3ef60405160405180910390a46116a78383836001611b2a565b505050565b60006002600083815260200190815260200160002060009054906101000a900473ffffffffffffffffffffffffffffffffffffffff169050919050565b6116f1611040565b73ffffffffffffffffffffffffffffffffffffffff1661170f610b8e565b73ffffffffffffffffffffffffffffffffffffffff1614611765576040517f08c379a000000000000000000000000000000000000000000000000000000000815260040161175c90612d9e565b60405180910390fd5b565b6000600660009054906101000a900473ffffffffffffffffffffffffffffffffffffffff16905081600660006101000a81548173ffffffffffffffffffffffffffffffffffffffff021916908373ffffffffffffffffffffffffffffffffffffffff1602179055508173ffffffffffffffffffffffffffffffffffffffff168173ffffffffffffffffffffffffffffffffffffffff167f8be0079c531659141344cd1fd0a4f28419497f9722a3daafe3b4186f6b6457e060405160405180910390a35050565b8173ffffffffffffffffffffffffffffffffffffffff168373ffffffffffffffffffffffffffffffffffffffff160361189b576040517f08c379a000000000000000000000000000000000000000000000000000000000815260040161189290612e0a565b60405180910390fd5b80600560008573ffffffffffffffffffffffffffffffffffffffff1673ffffffffffffffffffffffffffffffffffffffff16815260200190815260200160002060008473ffffffffffffffffffffffffffffffffffffffff1673ffffffffffffffffffffffffffffffffffffffff16815260200190815260200160002060006101000a81548160ff0219169083151502179055508173ffffffffffffffffffffffffffffffffffffffff168373ffffffffffffffffffffffffffffffffffffffff167f17307eab39ab6107e8899845ad3d59bd9653f200f220920489ca2b5937696c318360405161198c9190611ee1565b60405180910390a3505050565b6119a48484846113b3565b6119b084848484611b30565b6119ef576040517f08c379a00000000000000000000000000000000000000000000000000000000081526004016119e690612e9c565b60405180910390fd5b50505050565b6060604051806080016040528060448152602001612fcf60449139905090565b606060006001611a2484611cb7565b01905060008167ffffffffffffffff811115611a4357611a4261222d565b5b6040519080825280601f01601f191660200182016040528015611a755781602001600182028036833780820191505090505b509050600082602001820190505b600115611ad8578080600190039150507f3031323334353637383961626364656600000000000000000000000000000000600a86061a8153600a8581611acc57611acb612ebc565b5b04945060008503611a83575b819350505050919050565b60008073ffffffffffffffffffffffffffffffffffffffff16611b05836116ac565b73ffffffffffffffffffffffffffffffffffffffff1614159050919050565b50505050565b50505050565b6000611b518473ffffffffffffffffffffffffffffffffffffffff16611e0a565b15611caa578373ffffffffffffffffffffffffffffffffffffffff1663150b7a02611b7a611040565b8786866040518563ffffffff1660e01b8152600401611b9c9493929190612f40565b6020604051808303816000875af1925050508015611bd857506040513d601f19601f82011682018060405250810190611bd59190612fa1565b60015b611c5a573d8060008114611c08576040519150601f19603f3d011682016040523d82523d6000602084013e611c0d565b606091505b506000815103611c52576040517f08c379a0000000000000000000000000000000000000000000000000000000008152600401611c4990612e9c565b60405180910390fd5b805181602001fd5b63150b7a0260e01b7bffffffffffffffffffffffffffffffffffffffffffffffffffffffff1916817bffffffffffffffffffffffffffffffffffffffffffffffffffffffff191614915050611caf565b600190505b949350505050565b600080600090507a184f03e93ff9f4daa797ed6e38ed64bf6a1f0100000000000000008310611d15577a184f03e93ff9f4daa797ed6e38ed64bf6a1f0100000000000000008381611d0b57611d0a612ebc565b5b0492506040810190505b6d04ee2d6d415b85acef81000000008310611d52576d04ee2d6d415b85acef81000000008381611d4857611d47612ebc565b5b0492506020810190505b662386f26fc100008310611d8157662386f26fc100008381611d7757611d76612ebc565b5b0492506010810190505b6305f5e1008310611daa576305f5e1008381611da057611d9f612ebc565b5b0492506008810190505b6127108310611dcf576127108381611dc557611dc4612ebc565b5b0492506004810190505b60648310611df25760648381611de857611de7612ebc565b5b0492506002810190505b600a8310611e01576001810190505b80915050919050565b6000808273ffffffffffffffffffffffffffffffffffffffff163b119050919050565b6000604051905090565b600080fd5b600080fd5b60007fffffffff0000000000000000000000000000000000000000000000000000000082169050919050565b611e7681611e41565b8114611e8157600080fd5b50565b600081359050611e9381611e6d565b92915050565b600060208284031215611eaf57611eae611e37565b5b6000611ebd84828501611e84565b91505092915050565b60008115159050919050565b611edb81611ec6565b82525050565b6000602082019050611ef66000830184611ed2565b92915050565b600081519050919050565b600082825260208201905092915050565b60005b83811015611f36578082015181840152602081019050611f1b565b60008484015250505050565b6000601f19601f8301169050919050565b6000611f5e82611efc565b611f688185611f07565b9350611f78818560208601611f18565b611f8181611f42565b840191505092915050565b60006020820190508181036000830152611fa68184611f53565b905092915050565b6000819050919050565b611fc181611fae565b8114611fcc57600080fd5b50565b600081359050611fde81611fb8565b92915050565b600060208284031215611ffa57611ff9611e37565b5b600061200884828501611fcf565b91505092915050565b600073ffffffffffffffffffffffffffffffffffffffff82169050919050565b600061203c82612011565b9050919050565b61204c81612031565b82525050565b60006020820190506120676000830184612043565b92915050565b61207681612031565b811461208157600080fd5b50565b6000813590506120938161206d565b92915050565b600080604083850312156120b0576120af611e37565b5b60006120be85828601612084565b92505060206120cf85828601611fcf565b9150509250929050565b6120e281611fae565b82525050565b60006020820190506120fd60008301846120d9565b92915050565b60008060006060848603121561211c5761211b611e37565b5b600061212a86828701612084565b935050602061213b86828701612084565b925050604061214c86828701611fcf565b9150509250925092565b6000819050919050565b61216981612156565b82525050565b60006020820190506121846000830184612160565b92915050565b6000602082840312156121a05761219f611e37565b5b60006121ae84828501612084565b91505092915050565b6121c081611ec6565b81146121cb57600080fd5b50565b6000813590506121dd816121b7565b92915050565b600080604083850312156121fa576121f9611e37565b5b600061220885828601612084565b9250506020612219858286016121ce565b9150509250929050565b600080fd5b600080fd5b7f4e487b7100000000000000000000000000000000000000000000000000000000600052604160045260246000fd5b61226582611f42565b810181811067ffffffffffffffff821117156122845761228361222d565b5b80604052505050565b6000612297611e2d565b90506122a3828261225c565b919050565b600067ffffffffffffffff8211156122c3576122c261222d565b5b6122cc82611f42565b9050602081019050919050565b82818337600083830152505050565b60006122fb6122f6846122a8565b61228d565b90508281526020810184848401111561231757612316612228565b5b6123228482856122d9565b509392505050565b600082601f83011261233f5761233e612223565b5b813561234f8482602086016122e8565b91505092915050565b6000806000806080858703121561237257612371611e37565b5b600061238087828801612084565b945050602061239187828801612084565b93505060406123a287828801611fcf565b925050606085013567ffffffffffffffff8111156123c3576123c2611e3c565b5b6123cf8782880161232a565b91505092959194509250565b600080604083850312156123f2576123f1611e37565b5b600061240085828601612084565b925050602061241185828601612084565b9150509250929050565b7f4e487b7100000000000000000000000000000000000000000000000000000000600052602260045260246000fd5b6000600282049050600182168061246257607f821691505b6020821081036124755761247461241b565b5b50919050565b7f4552433732313a20617070726f76616c20746f2063757272656e74206f776e6560008201527f7200000000000000000000000000000000000000000000000000000000000000602082015250565b60006124d7602183611f07565b91506124e28261247b565b604082019050919050565b60006020820190508181036000830152612506816124ca565b9050919050565b7f4552433732313a20617070726f76652063616c6c6572206973206e6f7420746f60008201527f6b656e206f776e6572206f7220617070726f76656420666f7220616c6c000000602082015250565b6000612569603d83611f07565b91506125748261250d565b604082019050919050565b600060208201905081810360008301526125988161255c565b9050919050565b7f507572636861736520776f756c6420657863656564206d617820737570706c7960008201527f206f662042534d4e465473000000000000000000000000000000000000000000602082015250565b60006125fb602b83611f07565b91506126068261259f565b604082019050919050565b6000602082019050818103600083015261262a816125ee565b9050919050565b7f4552433732313a2063616c6c6572206973206e6f7420746f6b656e206f776e6560008201527f72206f7220617070726f76656400000000000000000000000000000000000000602082015250565b600061268d602d83611f07565b915061269882612631565b604082019050919050565b600060208201905081810360008301526126bc81612680565b9050919050565b7f4552433732313a20696e76616c696420746f6b656e2049440000000000000000600082015250565b60006126f9601883611f07565b9150612704826126c3565b602082019050919050565b60006020820190508181036000830152612728816126ec565b9050919050565b600069ffffffffffffffffffff82169050919050565b61274e8161272f565b811461275957600080fd5b50565b60008151905061276b81612745565b92915050565b61277a81612156565b811461278557600080fd5b50565b60008151905061279781612771565b92915050565b6000815190506127ac81611fb8565b92915050565b600080600080600060a086880312156127ce576127cd611e37565b5b60006127dc8882890161275c565b95505060206127ed88828901612788565b94505060406127fe8882890161279d565b935050606061280f8882890161279d565b92505060806128208882890161275c565b9150509295509295909350565b7f4552433732313a2061646472657373207a65726f206973206e6f74206120766160008201527f6c6964206f776e65720000000000000000000000000000000000000000000000602082015250565b6000612889602983611f07565b91506128948261282d565b604082019050919050565b600060208201905081810360008301526128b88161287c565b9050919050565b7f4e487b7100000000000000000000000000000000000000000000000000000000600052601160045260246000fd5b60006128f982612156565b915061290483612156565b925082820261291281612156565b91507f8000000000000000000000000000000000000000000000000000000000000000841460008412161561294a576129496128bf565b5b828205841483151761295f5761295e6128bf565b5b5092915050565b600081905092915050565b600061297c82611efc565b6129868185612966565b9350612996818560208601611f18565b80840191505092915050565b60006129ae8285612971565b91506129ba8284612971565b91508190509392505050565b7f546f6b656e206e6f206578697374650000000000000000000000000000000000600082015250565b60006129fc600f83611f07565b9150612a07826129c6565b602082019050919050565b60006020820190508181036000830152612a2b816129ef565b9050919050565b7f50726563696f206465626520736572207375706572696f7220616c207072656360008201527f696f2061637475616c0000000000000000000000000000000000000000000000602082015250565b6000612a8e602983611f07565b9150612a9982612a32565b604082019050919050565b60006020820190508181036000830152612abd81612a81565b9050919050565b7f4f776e61626c653a206e6577206f776e657220697320746865207a65726f206160008201527f6464726573730000000000000000000000000000000000000000000000000000602082015250565b6000612b20602683611f07565b9150612b2b82612ac4565b604082019050919050565b60006020820190508181036000830152612b4f81612b13565b9050919050565b7f4552433732313a206d696e7420746f20746865207a65726f2061646472657373600082015250565b6000612b8c602083611f07565b9150612b9782612b56565b602082019050919050565b60006020820190508181036000830152612bbb81612b7f565b9050919050565b7f4552433732313a20746f6b656e20616c7265616479206d696e74656400000000600082015250565b6000612bf8601c83611f07565b9150612c0382612bc2565b602082019050919050565b60006020820190508181036000830152612c2781612beb565b9050919050565b7f4552433732313a207472616e736665722066726f6d20696e636f72726563742060008201527f6f776e6572000000000000000000000000000000000000000000000000000000602082015250565b6000612c8a602583611f07565b9150612c9582612c2e565b604082019050919050565b60006020820190508181036000830152612cb981612c7d565b9050919050565b7f4552433732313a207472616e7366657220746f20746865207a65726f2061646460008201527f7265737300000000000000000000000000000000000000000000000000000000602082015250565b6000612d1c602483611f07565b9150612d2782612cc0565b604082019050919050565b60006020820190508181036000830152612d4b81612d0f565b9050919050565b7f4f776e61626c653a2063616c6c6572206973206e6f7420746865206f776e6572600082015250565b6000612d88602083611f07565b9150612d9382612d52565b602082019050919050565b60006020820190508181036000830152612db781612d7b565b9050919050565b7f4552433732313a20617070726f766520746f2063616c6c657200000000000000600082015250565b6000612df4601983611f07565b9150612dff82612dbe565b602082019050919050565b60006020820190508181036000830152612e2381612de7565b9050919050565b7f4552433732313a207472616e7366657220746f206e6f6e20455243373231526560008201527f63656976657220696d706c656d656e7465720000000000000000000000000000602082015250565b6000612e86603283611f07565b9150612e9182612e2a565b604082019050919050565b60006020820190508181036000830152612eb581612e79565b9050919050565b7f4e487b7100000000000000000000000000000000000000000000000000000000600052601260045260246000fd5b600081519050919050565b600082825260208201905092915050565b6000612f1282612eeb565b612f1c8185612ef6565b9350612f2c818560208601611f18565b612f3581611f42565b840191505092915050565b6000608082019050612f556000830187612043565b612f626020830186612043565b612f6f60408301856120d9565b8181036060830152612f818184612f07565b905095945050505050565b600081519050612f9b81611e6d565b92915050565b600060208284031215612fb757612fb6611e37565b5b6000612fc584828501612f8c565b9150509291505056fe68747470733a2f2f697066732e696f2f697066732f516d61744e4d70374e546250464a324551584e6e6b544466785555797443556150474d74506878536d6d35724e522fa264697066735822122096783445f3888bd8278461dd801a2c387e2541c37b479f7bd2b56ee750273c8064736f6c63430008130033",
  "immutableReferences": {},
  "source": "// SPDX-License-Identifier: MIT\npragma solidity ^0.8.4;\n\nimport \"@openzeppelin/contracts/token/ERC721/ERC721.sol\";\nimport \"@openzeppelin/contracts/access/Ownable.sol\";\nimport \"@chainlink/contracts/src/v0.8/interfaces/AggregatorV3Interface.sol\";\n\ncontract BSMNFT721 is ERC721, Ownable {\n    uint256 public totalSupply;\n\n    uint256 public constant maxNfts = 5;\n\n    uint256 public constant mintPrice = 10000000000000000; // 0.01 ETH\n\n    mapping(uint256 => int) private _prices;\n\n    AggregatorV3Interface internal priceFeed;\n\n    constructor() ERC721(\"BSMNFT\", \"BSMNFT\") {\n        priceFeed = AggregatorV3Interface(0x694AA1769357215DE4FAC081bf1f309aDC325306);\n    }\n\n    function _baseURI() override internal view virtual returns (string memory) {\n        return \"https://ipfs.io/ipfs/QmatNMp7NTbPFJ2EQXNnkTDfxUUytCUaPGMtPhxSmm5rNR/\";\n    }\n\n    function mint() public payable {\n        require(totalSupply <= maxNfts, \"Purchase would exceed max supply of BSMNFTs\");\n        // require(mintPrice <= msg.value, \"Ether value sent is not correct\");\n\n        unchecked {\n            ++totalSupply;\n        }\n\n        _prices[totalSupply] = int(msg.value);\n\n        _mint(msg.sender, totalSupply);\n    }\n\n    function priceOf(uint256 tokenId) public view virtual returns (int) {\n        return _prices[tokenId];\n    }\n\n    function buy(uint256 tokenId) public payable {\n        require(_prices[tokenId] > 0, \"Token no existe\");\n        require(int(msg.value) > _prices[tokenId], \"Precio debe ser superior al precio actual\");\n\n        payable(ownerOf(tokenId)).transfer(msg.value);\n\n        safeTransferFrom(ownerOf(tokenId), msg.sender, tokenId);\n\n        _prices[tokenId] = int(msg.value);\n    }\n\n    function usdPrice() public view returns (int) {\n        (\n            /* uint80 roundID */,\n            int price,\n            /*uint startedAt*/,\n            /*uint timeStamp*/,\n            /*uint80 answeredInRound*/\n        ) = priceFeed.latestRoundData();\n\n        return price;\n    }\n\n    function usdPriceOf(uint256 tokenId) public view virtual returns (int) {\n        return priceOf(tokenId) * usdPrice();\n    }\n\n}",
  "sourcePath": "/Users/ferranfg/Sites/bsm.ferranfigueredo.com/2023/21/practica/contracts/BSMNFT721.sol",
  "compiler": {
    "name": "solc",
    "version": "0.8.19+commit.7dd6d404.Emscripten.clang"
  },
  "schemaVersion": "3.4.13",
  "updatedAt": "2023-06-05T18:04:32.394Z",
  "networkType": "ethereum",
  "devdoc": {
    "events": {
      "Approval(address,address,uint256)": {
        "details": "Emitted when `owner` enables `approved` to manage the `tokenId` token."
      },
      "ApprovalForAll(address,address,bool)": {
        "details": "Emitted when `owner` enables or disables (`approved`) `operator` to manage all of its assets."
      },
      "Transfer(address,address,uint256)": {
        "details": "Emitted when `tokenId` token is transferred from `from` to `to`."
      }
    },
    "kind": "dev",
    "methods": {
      "approve(address,uint256)": {
        "details": "See {IERC721-approve}."
      },
      "balanceOf(address)": {
        "details": "See {IERC721-balanceOf}."
      },
      "getApproved(uint256)": {
        "details": "See {IERC721-getApproved}."
      },
      "isApprovedForAll(address,address)": {
        "details": "See {IERC721-isApprovedForAll}."
      },
      "name()": {
        "details": "See {IERC721Metadata-name}."
      },
      "owner()": {
        "details": "Returns the address of the current owner."
      },
      "ownerOf(uint256)": {
        "details": "See {IERC721-ownerOf}."
      },
      "renounceOwnership()": {
        "details": "Leaves the contract without owner. It will not be possible to call `onlyOwner` functions. Can only be called by the current owner. NOTE: Renouncing ownership will leave the contract without an owner, thereby disabling any functionality that is only available to the owner."
      },
      "safeTransferFrom(address,address,uint256)": {
        "details": "See {IERC721-safeTransferFrom}."
      },
      "safeTransferFrom(address,address,uint256,bytes)": {
        "details": "See {IERC721-safeTransferFrom}."
      },
      "setApprovalForAll(address,bool)": {
        "details": "See {IERC721-setApprovalForAll}."
      },
      "supportsInterface(bytes4)": {
        "details": "See {IERC165-supportsInterface}."
      },
      "symbol()": {
        "details": "See {IERC721Metadata-symbol}."
      },
      "tokenURI(uint256)": {
        "details": "See {IERC721Metadata-tokenURI}."
      },
      "transferFrom(address,address,uint256)": {
        "details": "See {IERC721-transferFrom}."
      },
      "transferOwnership(address)": {
        "details": "Transfers ownership of the contract to a new account (`newOwner`). Can only be called by the current owner."
      }
    },
    "version": 1
  },
  "userdoc": {
    "kind": "user",
    "methods": {},
    "version": 1
  }
}