{
  "contractName": "ProductManagementInterface",
  "abi": [
    {
      "constant": true,
      "inputs": [
        {
          "name": "",
          "type": "bytes32"
        }
      ],
      "name": "products",
      "outputs": [
        {
          "name": "manufacturer",
          "type": "address"
        },
        {
          "name": "serial_number",
          "type": "string"
        },
        {
          "name": "product_type",
          "type": "string"
        },
        {
          "name": "creation_date",
          "type": "string"
        }
      ],
      "payable": false,
      "stateMutability": "view",
      "type": "function"
    },
    {
      "constant": true,
      "inputs": [
        {
          "name": "",
          "type": "bytes32"
        }
      ],
      "name": "parts",
      "outputs": [
        {
          "name": "manufacturer",
          "type": "address"
        },
        {
          "name": "serial_number",
          "type": "string"
        },
        {
          "name": "part_type",
          "type": "string"
        },
        {
          "name": "creation_date",
          "type": "string"
        }
      ],
      "payable": false,
      "stateMutability": "view",
      "type": "function"
    },
    {
      "constant": false,
      "inputs": [
        {
          "name": "product_hash",
          "type": "bytes32"
        }
      ],
      "name": "getParts",
      "outputs": [
        {
          "name": "",
          "type": "bytes32[6]"
        }
      ],
      "payable": false,
      "stateMutability": "nonpayable",
      "type": "function"
    }
  ],
  "bytecode": "0x608060405234801561001057600080fd5b506108d7806100206000396000f3fe608060405260043610610051576000357c0100000000000000000000000000000000000000000000000000000000900480636e7303291461005657806379054391146100cd5780638c431b9f1461028c575b600080fd5b34801561006257600080fd5b5061008f6004803603602081101561007957600080fd5b810190808035906020019092919050505061044b565b6040518082600660200280838360005b838110156100ba57808201518184015260208101905061009f565b5050505090500191505060405180910390f35b3480156100d957600080fd5b50610106600480360360208110156100f057600080fd5b8101908080359060200190929190505050610458565b604051808573ffffffffffffffffffffffffffffffffffffffff1673ffffffffffffffffffffffffffffffffffffffff168152602001806020018060200180602001848103845287818151815260200191508051906020019080838360005b83811015610180578082015181840152602081019050610165565b50505050905090810190601f1680156101ad5780820380516001836020036101000a031916815260200191505b50848103835286818151815260200191508051906020019080838360005b838110156101e65780820151818401526020810190506101cb565b50505050905090810190601f1680156102135780820380516001836020036101000a031916815260200191505b50848103825285818151815260200191508051906020019080838360005b8381101561024c578082015181840152602081019050610231565b50505050905090810190601f1680156102795780820380516001836020036101000a031916815260200191505b5097505050505050505060405180910390f35b34801561029857600080fd5b506102c5600480360360208110156102af57600080fd5b8101908080359060200190929190505050610670565b604051808573ffffffffffffffffffffffffffffffffffffffff1673ffffffffffffffffffffffffffffffffffffffff168152602001806020018060200180602001848103845287818151815260200191508051906020019080838360005b8381101561033f578082015181840152602081019050610324565b50505050905090810190601f16801561036c5780820380516001836020036101000a031916815260200191505b50848103835286818151815260200191508051906020019080838360005b838110156103a557808201518184015260208101905061038a565b50505050905090810190601f1680156103d25780820380516001836020036101000a031916815260200191505b50848103825285818151815260200191508051906020019080838360005b8381101561040b5780820151818401526020810190506103f0565b50505050905090810190601f1680156104385780820380516001836020036101000a031916815260200191505b5097505050505050505060405180910390f35b610453610888565b919050565b60016020528060005260406000206000915090508060000160009054906101000a900473ffffffffffffffffffffffffffffffffffffffff1690806001018054600181600116156101000203166002900480601f01602080910402602001604051908101604052809291908181526020018280546001816001161561010002031660029004801561052a5780601f106104ff5761010080835404028352916020019161052a565b820191906000526020600020905b81548152906001019060200180831161050d57829003601f168201915b505050505090806002018054600181600116156101000203166002900480601f0160208091040260200160405190810160405280929190818152602001828054600181600116156101000203166002900480156105c85780601f1061059d576101008083540402835291602001916105c8565b820191906000526020600020905b8154815290600101906020018083116105ab57829003601f168201915b505050505090806003018054600181600116156101000203166002900480601f0160208091040260200160405190810160405280929190818152602001828054600181600116156101000203166002900480156106665780601f1061063b57610100808354040283529160200191610666565b820191906000526020600020905b81548152906001019060200180831161064957829003601f168201915b5050505050905084565b60006020528060005260406000206000915090508060000160009054906101000a900473ffffffffffffffffffffffffffffffffffffffff1690806001018054600181600116156101000203166002900480601f0160208091040260200160405190810160405280929190818152602001828054600181600116156101000203166002900480156107425780601f1061071757610100808354040283529160200191610742565b820191906000526020600020905b81548152906001019060200180831161072557829003601f168201915b505050505090806002018054600181600116156101000203166002900480601f0160208091040260200160405190810160405280929190818152602001828054600181600116156101000203166002900480156107e05780601f106107b5576101008083540402835291602001916107e0565b820191906000526020600020905b8154815290600101906020018083116107c357829003601f168201915b505050505090806003018054600181600116156101000203166002900480601f01602080910402602001604051908101604052809291908181526020018280546001816001161561010002031660029004801561087e5780601f106108535761010080835404028352916020019161087e565b820191906000526020600020905b81548152906001019060200180831161086157829003601f168201915b5050505050905084565b60c06040519081016040528060069060208202803883398082019150509050509056fea165627a7a723058206c657e9d35b04fca4b9a05912768ae5dd09010da17ce2c96e01cd5b8db99a8e60029",
  "source": "pragma solidity >=0.4.21 <0.6.0;\n\n// Add ProductManagement ABI to allow calls\ncontract ProductManagementInterface {\n    struct Part{\n        address manufacturer;\n        string serial_number;\n        string part_type;\n        string creation_date;\n    }\n\n    struct Product{\n        address manufacturer;\n        string serial_number;\n        string product_type;\n        string creation_date;\n        bytes32[] parts;\n    }\n\n    mapping(bytes32 => Part) public parts;\n    mapping(bytes32 => Product) public products;\n\n    function getParts(bytes32 product_hash) public returns (bytes32[6] memory) {}\n}\n\ncontract ChangeOwnership {\n\n    enum OperationType {PART, PRODUCT}\n\n    mapping(bytes32 => address) public currentPartOwner;\n    mapping(bytes32 => address) public currentProductOwner;\n\n    event TransferPartOwnership(bytes32 indexed p, address indexed account);\n    event TransferProductOwnership(bytes32 indexed p, address indexed account);\n\n    ProductManagementInterface private pm;\n\n    constructor(address prod_contract_addr) public {\n        // Just create a new auxiliary contract. We will use it to check if the part or product really exist\n        pm = ProductManagementInterface(prod_contract_addr);\n    }\n\n    function addOwnership(uint op_type, bytes32 p_hash) public returns (bool) {\n        if(op_type == uint(OperationType.PART)){\n            address manufacturer;\n            (manufacturer, , , ) = pm.parts(p_hash);\n            require(currentPartOwner[p_hash] == address(0), \"Part was already registered\");\n            // require(manufacturer == msg.sender, \"Part was not made by requester\");\n            currentPartOwner[p_hash] = msg.sender;\n            emit TransferPartOwnership(p_hash, msg.sender);\n        } else if (op_type == uint(OperationType.PRODUCT)){\n            address manufacturer;\n            (manufacturer, , , ) = pm.products(p_hash);\n            require(currentProductOwner[p_hash] == address(0), \"Product was already registered\");\n            // require(manufacturer == msg.sender, \"Product was not made by requester\");\n            currentProductOwner[p_hash] = msg.sender;\n            emit TransferProductOwnership(p_hash, msg.sender);\n        }\n    }\n\n    function changeOwnership(uint op_type, bytes32 p_hash, address to) public returns (bool) {\n      // Check if the element exists and belongs to the user requesting ownership change\n        if(op_type == uint(OperationType.PART)){\n            require(currentPartOwner[p_hash] == msg.sender, \"Part is not owned by requester\");\n            currentPartOwner[p_hash] = to;\n            emit TransferPartOwnership(p_hash, to);\n        } else if (op_type == uint(OperationType.PRODUCT)){\n            require(currentProductOwner[p_hash] == msg.sender, \"Product is not owned by requester\");\n            currentProductOwner[p_hash] = to;\n            emit TransferProductOwnership(p_hash, to);\n            // Change part ownership too\n            bytes32[6] memory part_list = pm.getParts(p_hash);\n            for(uint i = 0; i < part_list.length; i++){\n                currentPartOwner[part_list[i]] = to;\n                emit TransferPartOwnership(part_list[i], to);\n            }\n        }\n    }\n}",
  "sourcePath": "/Users/ferranfg/Sites/bsm.ferranfigueredo.com/2023/22/practica-truffle/contracts/ChangeOwnership.sol",
  "compiler": {
    "name": "solc",
    "version": "0.5.1+commit.c8a2cb62.Emscripten.clang"
  },
  "schemaVersion": "3.4.13",
  "updatedAt": "2023-06-14T16:36:42.052Z",
  "devdoc": {
    "methods": {}
  },
  "userdoc": {
    "methods": {}
  }
}