{
  "contractName": "ProductManagement",
  "abi": [
    {
      "constant": true,
      "inputs": [
        {
          "name": "",
          "type": "bytes32"
        }
      ],
      "name": "products",
      "outputs": [
        {
          "name": "manufacturer",
          "type": "address"
        },
        {
          "name": "serial_number",
          "type": "string"
        },
        {
          "name": "product_type",
          "type": "string"
        },
        {
          "name": "creation_date",
          "type": "string"
        }
      ],
      "payable": false,
      "stateMutability": "view",
      "type": "function"
    },
    {
      "constant": true,
      "inputs": [
        {
          "name": "",
          "type": "bytes32"
        }
      ],
      "name": "parts",
      "outputs": [
        {
          "name": "manufacturer",
          "type": "address"
        },
        {
          "name": "serial_number",
          "type": "string"
        },
        {
          "name": "part_type",
          "type": "string"
        },
        {
          "name": "creation_date",
          "type": "string"
        }
      ],
      "payable": false,
      "stateMutability": "view",
      "type": "function"
    },
    {
      "anonymous": false,
      "inputs": [
        {
          "indexed": true,
          "name": "part_hash",
          "type": "bytes32"
        },
        {
          "indexed": true,
          "name": "account",
          "type": "address"
        }
      ],
      "name": "PartCreated",
      "type": "event"
    },
    {
      "anonymous": false,
      "inputs": [
        {
          "indexed": true,
          "name": "product_hash",
          "type": "bytes32"
        },
        {
          "indexed": true,
          "name": "account",
          "type": "address"
        }
      ],
      "name": "ProductCreated",
      "type": "event"
    },
    {
      "constant": false,
      "inputs": [
        {
          "name": "serial_number",
          "type": "string"
        },
        {
          "name": "part_type",
          "type": "string"
        },
        {
          "name": "creation_date",
          "type": "string"
        }
      ],
      "name": "buildPart",
      "outputs": [
        {
          "name": "",
          "type": "bytes32"
        }
      ],
      "payable": false,
      "stateMutability": "nonpayable",
      "type": "function"
    },
    {
      "constant": false,
      "inputs": [
        {
          "name": "serial_number",
          "type": "string"
        },
        {
          "name": "product_type",
          "type": "string"
        },
        {
          "name": "creation_date",
          "type": "string"
        },
        {
          "name": "part_array",
          "type": "bytes32[6]"
        }
      ],
      "name": "buildProduct",
      "outputs": [
        {
          "name": "",
          "type": "bytes32"
        }
      ],
      "payable": false,
      "stateMutability": "nonpayable",
      "type": "function"
    },
    {
      "constant": true,
      "inputs": [
        {
          "name": "product_hash",
          "type": "bytes32"
        }
      ],
      "name": "getParts",
      "outputs": [
        {
          "name": "",
          "type": "bytes32[6]"
        }
      ],
      "payable": false,
      "stateMutability": "view",
      "type": "function"
    }
  ],
  "bytecode": "0x608060405234801561001057600080fd5b506118ff806100206000396000f3fe608060405260043610610067576000357c0100000000000000000000000000000000000000000000000000000000900480636e7303291461006c57806379054391146100e35780638c431b9f146102a2578063b9c2dc3a14610461578063d2af2aec1461066b575b600080fd5b34801561007857600080fd5b506100a56004803603602081101561008f57600080fd5b81019080803590602001909291905050506108b7565b6040518082600660200280838360005b838110156100d05780820151818401526020810190506100b5565b5050505090500191505060405180910390f35b3480156100ef57600080fd5b5061011c6004803603602081101561010657600080fd5b81019080803590602001909291905050506109f3565b604051808573ffffffffffffffffffffffffffffffffffffffff1673ffffffffffffffffffffffffffffffffffffffff168152602001806020018060200180602001848103845287818151815260200191508051906020019080838360005b8381101561019657808201518184015260208101905061017b565b50505050905090810190601f1680156101c35780820380516001836020036101000a031916815260200191505b50848103835286818151815260200191508051906020019080838360005b838110156101fc5780820151818401526020810190506101e1565b50505050905090810190601f1680156102295780820380516001836020036101000a031916815260200191505b50848103825285818151815260200191508051906020019080838360005b83811015610262578082015181840152602081019050610247565b50505050905090810190601f16801561028f5780820380516001836020036101000a031916815260200191505b5097505050505050505060405180910390f35b3480156102ae57600080fd5b506102db600480360360208110156102c557600080fd5b8101908080359060200190929190505050610c0b565b604051808573ffffffffffffffffffffffffffffffffffffffff1673ffffffffffffffffffffffffffffffffffffffff168152602001806020018060200180602001848103845287818151815260200191508051906020019080838360005b8381101561035557808201518184015260208101905061033a565b50505050905090810190601f1680156103825780820380516001836020036101000a031916815260200191505b50848103835286818151815260200191508051906020019080838360005b838110156103bb5780820151818401526020810190506103a0565b50505050905090810190601f1680156103e85780820380516001836020036101000a031916815260200191505b50848103825285818151815260200191508051906020019080838360005b83811015610421578082015181840152602081019050610406565b50505050905090810190601f16801561044e5780820380516001836020036101000a031916815260200191505b5097505050505050505060405180910390f35b34801561046d57600080fd5b506106556004803603606081101561048457600080fd5b81019080803590602001906401000000008111156104a157600080fd5b8201836020820111156104b357600080fd5b803590602001918460018302840111640100000000831117156104d557600080fd5b91908080601f016020809104026020016040519081016040528093929190818152602001838380828437600081840152601f19601f8201169050808301925050505050505091929192908035906020019064010000000081111561053857600080fd5b82018360208201111561054a57600080fd5b8035906020019184600183028401116401000000008311171561056c57600080fd5b91908080601f016020809104026020016040519081016040528093929190818152602001838380828437600081840152601f19601f820116905080830192505050505050509192919290803590602001906401000000008111156105cf57600080fd5b8201836020820111156105e157600080fd5b8035906020019184600183028401116401000000008311171561060357600080fd5b91908080601f016020809104026020016040519081016040528093929190818152602001838380828437600081840152601f19601f820116905080830192505050505050509192919290505050610e23565b6040518082815260200191505060405180910390f35b34801561067757600080fd5b506108a1600480360361012081101561068f57600080fd5b81019080803590602001906401000000008111156106ac57600080fd5b8201836020820111156106be57600080fd5b803590602001918460018302840111640100000000831117156106e057600080fd5b91908080601f016020809104026020016040519081016040528093929190818152602001838380828437600081840152601f19601f8201169050808301925050505050505091929192908035906020019064010000000081111561074357600080fd5b82018360208201111561075557600080fd5b8035906020019184600183028401116401000000008311171561077757600080fd5b91908080601f016020809104026020016040519081016040528093929190818152602001838380828437600081840152601f19601f820116905080830192505050505050509192919290803590602001906401000000008111156107da57600080fd5b8201836020820111156107ec57600080fd5b8035906020019184600183028401116401000000008311171561080e57600080fd5b91908080601f016020809104026020016040519081016040528093929190818152602001838380828437600081840152601f19601f8201169050808301925050505050505091929192908060c001906006806020026040519081016040528092919082600660200280828437600081840152601f19601f8201169050808301925050505050509192919290505050611053565b6040518082815260200191505060405180910390f35b6108bf6116f7565b600073ffffffffffffffffffffffffffffffffffffffff166001600084815260200190815260200160002060000160009054906101000a900473ffffffffffffffffffffffffffffffffffffffff1673ffffffffffffffffffffffffffffffffffffffff161415151561099a576040517f08c379a00000000000000000000000000000000000000000000000000000000081526004018080602001828103825260128152602001807f50726f6475637420696e6578697374656e74000000000000000000000000000081525060200191505060405180910390fd5b600160008381526020019081526020016000206004016006806020026040519081016040528092919082600680156109e7576020028201915b8154815260200190600101908083116109d3575b50505050509050919050565b60016020528060005260406000206000915090508060000160009054906101000a900473ffffffffffffffffffffffffffffffffffffffff1690806001018054600181600116156101000203166002900480601f016020809104026020016040519081016040528092919081815260200182805460018160011615610100020316600290048015610ac55780601f10610a9a57610100808354040283529160200191610ac5565b820191906000526020600020905b815481529060010190602001808311610aa857829003601f168201915b505050505090806002018054600181600116156101000203166002900480601f016020809104026020016040519081016040528092919081815260200182805460018160011615610100020316600290048015610b635780601f10610b3857610100808354040283529160200191610b63565b820191906000526020600020905b815481529060010190602001808311610b4657829003601f168201915b505050505090806003018054600181600116156101000203166002900480601f016020809104026020016040519081016040528092919081815260200182805460018160011615610100020316600290048015610c015780601f10610bd657610100808354040283529160200191610c01565b820191906000526020600020905b815481529060010190602001808311610be457829003601f168201915b5050505050905084565b60006020528060005260406000206000915090508060000160009054906101000a900473ffffffffffffffffffffffffffffffffffffffff1690806001018054600181600116156101000203166002900480601f016020809104026020016040519081016040528092919081815260200182805460018160011615610100020316600290048015610cdd5780601f10610cb257610100808354040283529160200191610cdd565b820191906000526020600020905b815481529060010190602001808311610cc057829003601f168201915b505050505090806002018054600181600116156101000203166002900480601f016020809104026020016040519081016040528092919081815260200182805460018160011615610100020316600290048015610d7b5780601f10610d5057610100808354040283529160200191610d7b565b820191906000526020600020905b815481529060010190602001808311610d5e57829003601f168201915b505050505090806003018054600181600116156101000203166002900480601f016020809104026020016040519081016040528092919081815260200182805460018160011615610100020316600290048015610e195780601f10610dee57610100808354040283529160200191610e19565b820191906000526020600020905b815481529060010190602001808311610dfc57829003601f168201915b5050505050905084565b600080610e32338686866113ae565b9050600073ffffffffffffffffffffffffffffffffffffffff1660008083815260200190815260200160002060000160009054906101000a900473ffffffffffffffffffffffffffffffffffffffff1673ffffffffffffffffffffffffffffffffffffffff16141515610f0d576040517f08c379a00000000000000000000000000000000000000000000000000000000081526004018080602001828103825260148152602001807f5061727420494420616c7265616479207573656400000000000000000000000081525060200191505060405180910390fd5b610f1561171a565b6080604051908101604052803373ffffffffffffffffffffffffffffffffffffffff1681526020018781526020018681526020018581525090508060008084815260200190815260200160002060008201518160000160006101000a81548173ffffffffffffffffffffffffffffffffffffffff021916908373ffffffffffffffffffffffffffffffffffffffff1602179055506020820151816001019080519060200190610fc5929190611759565b506040820151816002019080519060200190610fe2929190611759565b506060820151816003019080519060200190610fff929190611759565b509050503373ffffffffffffffffffffffffffffffffffffffff16827f2a589fadf9dea8cdd84aa087ba0746bff9b262f7ae6ba9a91dd8cd75fbfaa2a060405160405180910390a381925050509392505050565b600080600090505b600681101561115d57600073ffffffffffffffffffffffffffffffffffffffff16600080858460068110151561108d57fe5b6020020151815260200190815260200160002060000160009054906101000a900473ffffffffffffffffffffffffffffffffffffffff1673ffffffffffffffffffffffffffffffffffffffff1614151515611150576040517f08c379a000000000000000000000000000000000000000000000000000000000815260040180806020018281038252601f8152602001807f496e6578697374656e7420706172742075736564206f6e2070726f647563740081525060200191505060405180910390fd5b808060010191505061105b565b600061116b338888886113ae565b9050600073ffffffffffffffffffffffffffffffffffffffff166001600083815260200190815260200160002060000160009054906101000a900473ffffffffffffffffffffffffffffffffffffffff1673ffffffffffffffffffffffffffffffffffffffff16141515611247576040517f08c379a00000000000000000000000000000000000000000000000000000000081526004018080602001828103825260178152602001807f50726f6475637420494420616c7265616479207573656400000000000000000081525060200191505060405180910390fd5b61124f6117d9565b60a0604051908101604052803373ffffffffffffffffffffffffffffffffffffffff168152602001898152602001888152602001878152602001868152509050806001600084815260200190815260200160002060008201518160000160006101000a81548173ffffffffffffffffffffffffffffffffffffffff021916908373ffffffffffffffffffffffffffffffffffffffff1602179055506020820151816001019080519060200190611306929190611759565b506040820151816002019080519060200190611323929190611759565b506060820151816003019080519060200190611340929190611759565b50608082015181600401906006611358929190611826565b509050503373ffffffffffffffffffffffffffffffffffffffff16827f1f3cd26d22ddb1ce87773315d1a9a80f4c46a7aaf7a8d3c23827523b8976f91260405160405180910390a3819350505050949350505050565b600080856c010000000000000000000000000290506060859050606085905060608590506060815183518551601460ff160101016040519080825280601f01601f1916602001820160405280156114145781602001600182028038833980820191505090505b5090506060819050600080905060008090505b601460ff168110156114b557878160148110151561144157fe5b1a7f010000000000000000000000000000000000000000000000000000000000000002838380600101945081518110151561147857fe5b9060200101907effffffffffffffffffffffffffffffffffffffffffffffffffffffffffffff1916908160001a9053508080600101915050611427565b600090505b865181101561156d5786818151811015156114d157fe5b9060200101517f010000000000000000000000000000000000000000000000000000000000000090047f010000000000000000000000000000000000000000000000000000000000000002838380600101945081518110151561153057fe5b9060200101907effffffffffffffffffffffffffffffffffffffffffffffffffffffffffffff1916908160001a90535080806001019150506114ba565b600090505b855181101561162557858181518110151561158957fe5b9060200101517f010000000000000000000000000000000000000000000000000000000000000090047f01000000000000000000000000000000000000000000000000000000000000000283838060010194508151811015156115e857fe5b9060200101907effffffffffffffffffffffffffffffffffffffffffffffffffffffffffffff1916908160001a9053508080600101915050611572565b600090505b84518110156116dd57848181518110151561164157fe5b9060200101517f010000000000000000000000000000000000000000000000000000000000000090047f01000000000000000000000000000000000000000000000000000000000000000283838060010194508151811015156116a057fe5b9060200101907effffffffffffffffffffffffffffffffffffffffffffffffffffffffffffff1916908160001a905350808060010191505061162a565b828051906020012098505050505050505050949350505050565b60c060405190810160405280600690602082028038833980820191505090505090565b608060405190810160405280600073ffffffffffffffffffffffffffffffffffffffff1681526020016060815260200160608152602001606081525090565b828054600181600116156101000203166002900490600052602060002090601f016020900481019282601f1061179a57805160ff19168380011785556117c8565b828001600101855582156117c8579182015b828111156117c75782518255916020019190600101906117ac565b5b5090506117d59190611866565b5090565b61014060405190810160405280600073ffffffffffffffffffffffffffffffffffffffff16815260200160608152602001606081526020016060815260200161182061188b565b81525090565b8260068101928215611855579160200282015b82811115611854578251825591602001919060010190611839565b5b50905061186291906118ae565b5090565b61188891905b8082111561188457600081600090555060010161186c565b5090565b90565b60c060405190810160405280600690602082028038833980820191505090505090565b6118d091905b808211156118cc5760008160009055506001016118b4565b5090565b9056fea165627a7a723058206bd49742137c0e598b542d4cae333be3b587e8891e26cc52ebeeccfb7633afe10029",
  "source": "pragma solidity >=0.4.21 <0.6.0;\n\ncontract ProductManagement {\n    struct Part{\n        address manufacturer;\n        string serial_number;\n        string part_type;\n        string creation_date;\n    }\n\n    struct Product{\n        address manufacturer;\n        string serial_number;\n        string product_type;\n        string creation_date;\n        bytes32[6] parts;\n    }\n\n    event PartCreated(bytes32 indexed part_hash, address indexed account);\n    event ProductCreated(bytes32 indexed product_hash, address indexed account);\n\n    mapping(bytes32 => Part) public parts;\n    mapping(bytes32 => Product) public products;\n\n    function concatenateInfoAndHash(address a1, string memory s1, string memory s2, string memory s3) private pure returns (bytes32){\n        // First, get all values as bytes\n        bytes20 b_a1 = bytes20(a1);\n        bytes memory b_s1 = bytes(s1);\n        bytes memory b_s2 = bytes(s2);\n        bytes memory b_s3 = bytes(s3);\n\n        // Then calculate and reserve a space for the full string\n        string memory s_full = new string(b_a1.length + b_s1.length + b_s2.length + b_s3.length);\n        bytes memory b_full = bytes(s_full);\n        uint j = 0;\n        uint i;\n\n        for(i = 0; i < b_a1.length; i++){\n            b_full[j++] = b_a1[i];\n        }\n        for(i = 0; i < b_s1.length; i++){\n            b_full[j++] = b_s1[i];\n        }\n        for(i = 0; i < b_s2.length; i++){\n            b_full[j++] = b_s2[i];\n        }\n        for(i = 0; i < b_s3.length; i++){\n            b_full[j++] = b_s3[i];\n        }\n\n        // Hash the result and return\n        return keccak256(b_full);\n    }\n\n    function buildPart(string memory serial_number, string memory part_type, string memory creation_date) public returns (bytes32){\n        // Create hash for data and check if it exists. If it doesn't, create the part and return the ID to the user\n        bytes32 part_hash = concatenateInfoAndHash(msg.sender, serial_number, part_type, creation_date);\n\n        require(parts[part_hash].manufacturer == address(0), \"Part ID already used\");\n\n        Part memory new_part = Part(msg.sender, serial_number, part_type, creation_date);\n        parts[part_hash] = new_part;\n\n        emit PartCreated(part_hash, msg.sender);\n\n        return part_hash;\n    }\n\n    function buildProduct(\n        string memory serial_number,\n        string memory product_type,\n        string memory creation_date,\n        bytes32[6] memory part_array) public returns (bytes32){\n        // Check if all the parts exist, hash values and add to product mapping.\n        uint i;\n        for(i = 0;i < part_array.length; i++){\n            require(parts[part_array[i]].manufacturer != address(0), \"Inexistent part used on product\");\n        }\n\n        // Create hash for data and check if exists. If it doesn't, create the part and return the ID to the user\n        bytes32 product_hash = concatenateInfoAndHash(msg.sender, serial_number, product_type, creation_date);\n\n        require(products[product_hash].manufacturer == address(0), \"Product ID already used\");\n\n        Product memory new_product = Product(msg.sender, serial_number, product_type, creation_date, part_array);\n        products[product_hash] = new_product;\n\n        emit ProductCreated(product_hash, msg.sender);\n\n        return product_hash;\n    }\n\n    function getParts(bytes32 product_hash) public view returns (bytes32[6] memory){\n        // The automatic getter does not return arrays, so lets create a function for that\n        require(products[product_hash].manufacturer != address(0), \"Product inexistent\");\n        return products[product_hash].parts;\n    }\n}",
  "sourcePath": "/Users/ferranfg/Sites/bsm.ferranfigueredo.com/2023/22/practica-truffle/contracts/ProductManagement.sol",
  "compiler": {
    "name": "solc",
    "version": "0.5.1+commit.c8a2cb62.Emscripten.clang"
  },
  "schemaVersion": "3.4.13",
  "updatedAt": "2023-06-14T16:36:47.046Z",
  "networkType": "ethereum",
  "devdoc": {
    "methods": {}
  },
  "userdoc": {
    "methods": {}
  }
}