{
  "contractName": "BSMWINE",
  "abi": [
    {
      "inputs": [
        {
          "internalType": "string",
          "name": "_baseURI",
          "type": "string"
        }
      ],
      "stateMutability": "nonpayable",
      "type": "constructor"
    },
    {
      "anonymous": false,
      "inputs": [
        {
          "indexed": true,
          "internalType": "address",
          "name": "account",
          "type": "address"
        },
        {
          "indexed": true,
          "internalType": "address",
          "name": "operator",
          "type": "address"
        },
        {
          "indexed": false,
          "internalType": "bool",
          "name": "approved",
          "type": "bool"
        }
      ],
      "name": "ApprovalForAll",
      "type": "event"
    },
    {
      "anonymous": false,
      "inputs": [
        {
          "indexed": true,
          "internalType": "address",
          "name": "minter",
          "type": "address"
        },
        {
          "indexed": true,
          "internalType": "uint256",
          "name": "tokenId",
          "type": "uint256"
        }
      ],
      "name": "Minted",
      "type": "event"
    },
    {
      "anonymous": false,
      "inputs": [
        {
          "indexed": true,
          "internalType": "address",
          "name": "previousOwner",
          "type": "address"
        },
        {
          "indexed": true,
          "internalType": "address",
          "name": "newOwner",
          "type": "address"
        }
      ],
      "name": "OwnershipTransferred",
      "type": "event"
    },
    {
      "anonymous": false,
      "inputs": [
        {
          "indexed": true,
          "internalType": "address",
          "name": "operator",
          "type": "address"
        },
        {
          "indexed": true,
          "internalType": "address",
          "name": "from",
          "type": "address"
        },
        {
          "indexed": true,
          "internalType": "address",
          "name": "to",
          "type": "address"
        },
        {
          "indexed": false,
          "internalType": "uint256[]",
          "name": "ids",
          "type": "uint256[]"
        },
        {
          "indexed": false,
          "internalType": "uint256[]",
          "name": "values",
          "type": "uint256[]"
        }
      ],
      "name": "TransferBatch",
      "type": "event"
    },
    {
      "anonymous": false,
      "inputs": [
        {
          "indexed": true,
          "internalType": "address",
          "name": "operator",
          "type": "address"
        },
        {
          "indexed": true,
          "internalType": "address",
          "name": "from",
          "type": "address"
        },
        {
          "indexed": true,
          "internalType": "address",
          "name": "to",
          "type": "address"
        },
        {
          "indexed": false,
          "internalType": "uint256",
          "name": "id",
          "type": "uint256"
        },
        {
          "indexed": false,
          "internalType": "uint256",
          "name": "value",
          "type": "uint256"
        }
      ],
      "name": "TransferSingle",
      "type": "event"
    },
    {
      "anonymous": false,
      "inputs": [
        {
          "indexed": false,
          "internalType": "string",
          "name": "value",
          "type": "string"
        },
        {
          "indexed": true,
          "internalType": "uint256",
          "name": "id",
          "type": "uint256"
        }
      ],
      "name": "URI",
      "type": "event"
    },
    {
      "inputs": [
        {
          "internalType": "uint256",
          "name": "",
          "type": "uint256"
        }
      ],
      "name": "_totalSupply",
      "outputs": [
        {
          "internalType": "uint256",
          "name": "",
          "type": "uint256"
        }
      ],
      "stateMutability": "view",
      "type": "function",
      "constant": true
    },
    {
      "inputs": [
        {
          "internalType": "address",
          "name": "account",
          "type": "address"
        },
        {
          "internalType": "uint256",
          "name": "id",
          "type": "uint256"
        }
      ],
      "name": "balanceOf",
      "outputs": [
        {
          "internalType": "uint256",
          "name": "",
          "type": "uint256"
        }
      ],
      "stateMutability": "view",
      "type": "function",
      "constant": true
    },
    {
      "inputs": [
        {
          "internalType": "address[]",
          "name": "accounts",
          "type": "address[]"
        },
        {
          "internalType": "uint256[]",
          "name": "ids",
          "type": "uint256[]"
        }
      ],
      "name": "balanceOfBatch",
      "outputs": [
        {
          "internalType": "uint256[]",
          "name": "",
          "type": "uint256[]"
        }
      ],
      "stateMutability": "view",
      "type": "function",
      "constant": true
    },
    {
      "inputs": [
        {
          "internalType": "address",
          "name": "account",
          "type": "address"
        },
        {
          "internalType": "address",
          "name": "operator",
          "type": "address"
        }
      ],
      "name": "isApprovedForAll",
      "outputs": [
        {
          "internalType": "bool",
          "name": "",
          "type": "bool"
        }
      ],
      "stateMutability": "view",
      "type": "function",
      "constant": true
    },
    {
      "inputs": [],
      "name": "mintIsActive",
      "outputs": [
        {
          "internalType": "bool",
          "name": "",
          "type": "bool"
        }
      ],
      "stateMutability": "view",
      "type": "function",
      "constant": true
    },
    {
      "inputs": [],
      "name": "mintPrice",
      "outputs": [
        {
          "internalType": "uint256",
          "name": "",
          "type": "uint256"
        }
      ],
      "stateMutability": "view",
      "type": "function",
      "constant": true
    },
    {
      "inputs": [],
      "name": "name",
      "outputs": [
        {
          "internalType": "string",
          "name": "",
          "type": "string"
        }
      ],
      "stateMutability": "view",
      "type": "function",
      "constant": true
    },
    {
      "inputs": [],
      "name": "owner",
      "outputs": [
        {
          "internalType": "address",
          "name": "",
          "type": "address"
        }
      ],
      "stateMutability": "view",
      "type": "function",
      "constant": true
    },
    {
      "inputs": [],
      "name": "renounceOwnership",
      "outputs": [],
      "stateMutability": "nonpayable",
      "type": "function"
    },
    {
      "inputs": [
        {
          "internalType": "address",
          "name": "from",
          "type": "address"
        },
        {
          "internalType": "address",
          "name": "to",
          "type": "address"
        },
        {
          "internalType": "uint256[]",
          "name": "ids",
          "type": "uint256[]"
        },
        {
          "internalType": "uint256[]",
          "name": "amounts",
          "type": "uint256[]"
        },
        {
          "internalType": "bytes",
          "name": "data",
          "type": "bytes"
        }
      ],
      "name": "safeBatchTransferFrom",
      "outputs": [],
      "stateMutability": "nonpayable",
      "type": "function"
    },
    {
      "inputs": [
        {
          "internalType": "address",
          "name": "from",
          "type": "address"
        },
        {
          "internalType": "address",
          "name": "to",
          "type": "address"
        },
        {
          "internalType": "uint256",
          "name": "id",
          "type": "uint256"
        },
        {
          "internalType": "uint256",
          "name": "amount",
          "type": "uint256"
        },
        {
          "internalType": "bytes",
          "name": "data",
          "type": "bytes"
        }
      ],
      "name": "safeTransferFrom",
      "outputs": [],
      "stateMutability": "nonpayable",
      "type": "function"
    },
    {
      "inputs": [
        {
          "internalType": "address",
          "name": "operator",
          "type": "address"
        },
        {
          "internalType": "bool",
          "name": "approved",
          "type": "bool"
        }
      ],
      "name": "setApprovalForAll",
      "outputs": [],
      "stateMutability": "nonpayable",
      "type": "function"
    },
    {
      "inputs": [
        {
          "internalType": "bytes4",
          "name": "interfaceId",
          "type": "bytes4"
        }
      ],
      "name": "supportsInterface",
      "outputs": [
        {
          "internalType": "bool",
          "name": "",
          "type": "bool"
        }
      ],
      "stateMutability": "view",
      "type": "function",
      "constant": true
    },
    {
      "inputs": [],
      "name": "symbol",
      "outputs": [
        {
          "internalType": "string",
          "name": "",
          "type": "string"
        }
      ],
      "stateMutability": "view",
      "type": "function",
      "constant": true
    },
    {
      "inputs": [
        {
          "internalType": "address",
          "name": "newOwner",
          "type": "address"
        }
      ],
      "name": "transferOwnership",
      "outputs": [],
      "stateMutability": "nonpayable",
      "type": "function"
    },
    {
      "inputs": [
        {
          "internalType": "uint256",
          "name": "",
          "type": "uint256"
        }
      ],
      "name": "wineries",
      "outputs": [
        {
          "internalType": "address",
          "name": "",
          "type": "address"
        }
      ],
      "stateMutability": "view",
      "type": "function",
      "constant": true
    },
    {
      "inputs": [
        {
          "internalType": "string",
          "name": "baseURI",
          "type": "string"
        }
      ],
      "name": "setBaseURI",
      "outputs": [],
      "stateMutability": "nonpayable",
      "type": "function"
    },
    {
      "inputs": [
        {
          "internalType": "uint256",
          "name": "_mintPrice",
          "type": "uint256"
        }
      ],
      "name": "setMintPrice",
      "outputs": [],
      "stateMutability": "nonpayable",
      "type": "function"
    },
    {
      "inputs": [],
      "name": "flipMintState",
      "outputs": [],
      "stateMutability": "nonpayable",
      "type": "function"
    },
    {
      "inputs": [],
      "name": "withdraw",
      "outputs": [],
      "stateMutability": "nonpayable",
      "type": "function"
    },
    {
      "inputs": [
        {
          "internalType": "uint256",
          "name": "tokenId",
          "type": "uint256"
        }
      ],
      "name": "mint",
      "outputs": [],
      "stateMutability": "payable",
      "type": "function",
      "payable": true
    },
    {
      "inputs": [
        {
          "internalType": "uint256",
          "name": "tokenId",
          "type": "uint256"
        }
      ],
      "name": "uri",
      "outputs": [
        {
          "internalType": "string",
          "name": "",
          "type": "string"
        }
      ],
      "stateMutability": "view",
      "type": "function",
      "constant": true
    },
    {
      "inputs": [
        {
          "internalType": "uint256",
          "name": "tokenId",
          "type": "uint256"
        }
      ],
      "name": "totalSupply",
      "outputs": [
        {
          "internalType": "uint256",
          "name": "",
          "type": "uint256"
        }
      ],
      "stateMutability": "view",
      "type": "function",
      "constant": true
    }
  ],
  "bytecode": "0x60806040526040518060200160405280600081525060039081620000249190620004c9565b506040518060400160405280600881526020017f42534d2d57494e45000000000000000000000000000000000000000000000000815250600690816200006b9190620004c9565b506040518060400160405280600381526020017f42534d000000000000000000000000000000000000000000000000000000000081525060079081620000b29190620004c9565b50667c5850872380006008556000600960006101000a81548160ff021916908315150217905550348015620000e657600080fd5b50604051620044953803806200449583398181016040528101906200010c919062000714565b806200011e816200015760201b60201c565b506200013f620001336200016c60201b60201c565b6200017460201b60201c565b62000150816200023a60201b60201c565b5062000765565b8060029081620001689190620004c9565b5050565b600033905090565b6000600560009054906101000a900473ffffffffffffffffffffffffffffffffffffffff16905081600560006101000a81548173ffffffffffffffffffffffffffffffffffffffff021916908373ffffffffffffffffffffffffffffffffffffffff1602179055508173ffffffffffffffffffffffffffffffffffffffff168173ffffffffffffffffffffffffffffffffffffffff167f8be0079c531659141344cd1fd0a4f28419497f9722a3daafe3b4186f6b6457e060405160405180910390a35050565b80600390816200024b9190620004c9565b5050565b600081519050919050565b7f4e487b7100000000000000000000000000000000000000000000000000000000600052604160045260246000fd5b7f4e487b7100000000000000000000000000000000000000000000000000000000600052602260045260246000fd5b60006002820490506001821680620002d157607f821691505b602082108103620002e757620002e662000289565b5b50919050565b60008190508160005260206000209050919050565b60006020601f8301049050919050565b600082821b905092915050565b600060088302620003517fffffffffffffffffffffffffffffffffffffffffffffffffffffffffffffffff8262000312565b6200035d868362000312565b95508019841693508086168417925050509392505050565b6000819050919050565b6000819050919050565b6000620003aa620003a46200039e8462000375565b6200037f565b62000375565b9050919050565b6000819050919050565b620003c68362000389565b620003de620003d582620003b1565b8484546200031f565b825550505050565b600090565b620003f5620003e6565b62000402818484620003bb565b505050565b5b818110156200042a576200041e600082620003eb565b60018101905062000408565b5050565b601f82111562000479576200044381620002ed565b6200044e8462000302565b810160208510156200045e578190505b620004766200046d8562000302565b83018262000407565b50505b505050565b600082821c905092915050565b60006200049e600019846008026200047e565b1980831691505092915050565b6000620004b983836200048b565b9150826002028217905092915050565b620004d4826200024f565b67ffffffffffffffff811115620004f057620004ef6200025a565b5b620004fc8254620002b8565b620005098282856200042e565b600060209050601f8311600181146200054157600084156200052c578287015190505b620005388582620004ab565b865550620005a8565b601f1984166200055186620002ed565b60005b828110156200057b5784890151825560018201915060208501945060208101905062000554565b868310156200059b578489015162000597601f8916826200048b565b8355505b6001600288020188555050505b505050505050565b6000604051905090565b600080fd5b600080fd5b600080fd5b600080fd5b6000601f19601f8301169050919050565b620005ea82620005ce565b810181811067ffffffffffffffff821117156200060c576200060b6200025a565b5b80604052505050565b600062000621620005b0565b90506200062f8282620005df565b919050565b600067ffffffffffffffff8211156200065257620006516200025a565b5b6200065d82620005ce565b9050602081019050919050565b60005b838110156200068a5780820151818401526020810190506200066d565b60008484015250505050565b6000620006ad620006a78462000634565b62000615565b905082815260208101848484011115620006cc57620006cb620005c9565b5b620006d98482856200066a565b509392505050565b600082601f830112620006f957620006f8620005c4565b5b81516200070b84826020860162000696565b91505092915050565b6000602082840312156200072d576200072c620005ba565b5b600082015167ffffffffffffffff8111156200074e576200074d620005bf565b5b6200075c84828501620006e1565b91505092915050565b613d2080620007756000396000f3fe60806040526004361061013f5760003560e01c80636817c76c116100b6578063bd85b0391161006f578063bd85b03914610428578063e985e9c514610465578063f242432a146104a2578063f2fde38b146104cb578063f4a0a528146104f4578063f4b77a981461051d5761013f565b80636817c76c1461034b578063715018a6146103765780638da5cb5b1461038d57806395d89b41146103b8578063a0712d68146103e3578063a22cb465146103ff5761013f565b80633ccfd60b116101085780633ccfd60b1461024f578063471a4294146102665780634e1273f41461029157806355f804b3146102ce5780635977e82a146102f757806359c74f29146103345761013f565b8062fdd58e1461014457806301ffc9a71461018157806306fdde03146101be5780630e89341c146101e95780632eb2c2d614610226575b600080fd5b34801561015057600080fd5b5061016b60048036038101906101669190612369565b61055a565b60405161017891906123b8565b60405180910390f35b34801561018d57600080fd5b506101a860048036038101906101a3919061242b565b610622565b6040516101b59190612473565b60405180910390f35b3480156101ca57600080fd5b506101d3610704565b6040516101e0919061251e565b60405180910390f35b3480156101f557600080fd5b50610210600480360381019061020b9190612540565b610792565b60405161021d919061251e565b60405180910390f35b34801561023257600080fd5b5061024d6004803603810190610248919061276a565b6107ad565b005b34801561025b57600080fd5b5061026461084e565b005b34801561027257600080fd5b5061027b6108a5565b6040516102889190612473565b60405180910390f35b34801561029d57600080fd5b506102b860048036038101906102b391906128fc565b6108b8565b6040516102c59190612a32565b60405180910390f35b3480156102da57600080fd5b506102f560048036038101906102f09190612af5565b6109d1565b005b34801561030357600080fd5b5061031e60048036038101906103199190612540565b6109e5565b60405161032b91906123b8565b60405180910390f35b34801561034057600080fd5b506103496109fd565b005b34801561035757600080fd5b50610360610a31565b60405161036d91906123b8565b60405180910390f35b34801561038257600080fd5b5061038b610a37565b005b34801561039957600080fd5b506103a2610a4b565b6040516103af9190612b4d565b60405180910390f35b3480156103c457600080fd5b506103cd610a75565b6040516103da919061251e565b60405180910390f35b6103fd60048036038101906103f89190612540565b610b03565b005b34801561040b57600080fd5b5061042660048036038101906104219190612b94565b610cdf565b005b34801561043457600080fd5b5061044f600480360381019061044a9190612540565b610cf5565b60405161045c91906123b8565b60405180910390f35b34801561047157600080fd5b5061048c60048036038101906104879190612bd4565b610d12565b6040516104999190612473565b60405180910390f35b3480156104ae57600080fd5b506104c960048036038101906104c49190612c14565b610da6565b005b3480156104d757600080fd5b506104f260048036038101906104ed9190612cab565b610e47565b005b34801561050057600080fd5b5061051b60048036038101906105169190612540565b610eca565b005b34801561052957600080fd5b50610544600480360381019061053f9190612540565b610edc565b6040516105519190612b4d565b60405180910390f35b60008073ffffffffffffffffffffffffffffffffffffffff168373ffffffffffffffffffffffffffffffffffffffff16036105ca576040517f08c379a00000000000000000000000000000000000000000000000000000000081526004016105c190612d4a565b60405180910390fd5b60008083815260200190815260200160002060008473ffffffffffffffffffffffffffffffffffffffff1673ffffffffffffffffffffffffffffffffffffffff16815260200190815260200160002054905092915050565b60007fd9b67a26000000000000000000000000000000000000000000000000000000007bffffffffffffffffffffffffffffffffffffffffffffffffffffffff1916827bffffffffffffffffffffffffffffffffffffffffffffffffffffffff191614806106ed57507f0e89341c000000000000000000000000000000000000000000000000000000007bffffffffffffffffffffffffffffffffffffffffffffffffffffffff1916827bffffffffffffffffffffffffffffffffffffffffffffffffffffffff1916145b806106fd57506106fc82610f0f565b5b9050919050565b6006805461071190612d99565b80601f016020809104026020016040519081016040528092919081815260200182805461073d90612d99565b801561078a5780601f1061075f5761010080835404028352916020019161078a565b820191906000526020600020905b81548152906001019060200180831161076d57829003601f168201915b505050505081565b606061079d82610f79565b6107a682610fc4565b9050919050565b6107b56110a9565b73ffffffffffffffffffffffffffffffffffffffff168573ffffffffffffffffffffffffffffffffffffffff1614806107fb57506107fa856107f56110a9565b610d12565b5b61083a576040517f08c379a000000000000000000000000000000000000000000000000000000000815260040161083190612e3c565b60405180910390fd5b61084785858585856110b1565b5050505050565b6108566113d2565b60004790503373ffffffffffffffffffffffffffffffffffffffff166108fc829081150290604051600060405180830381858888f193505050501580156108a1573d6000803e3d6000fd5b5050565b600960009054906101000a900460ff1681565b606081518351146108fe576040517f08c379a00000000000000000000000000000000000000000000000000000000081526004016108f590612ece565b60405180910390fd5b6000835167ffffffffffffffff81111561091b5761091a612572565b5b6040519080825280602002602001820160405280156109495781602001602082028036833780820191505090505b50905060005b84518110156109c65761099685828151811061096e5761096d612eee565b5b602002602001015185838151811061098957610988612eee565b5b602002602001015161055a565b8282815181106109a9576109a8612eee565b5b602002602001018181525050806109bf90612f4c565b905061094f565b508091505092915050565b6109d96113d2565b6109e281611450565b50565b600b6020528060005260406000206000915090505481565b610a056113d2565b600960009054906101000a900460ff1615600960006101000a81548160ff021916908315150217905550565b60085481565b610a3f6113d2565b610a496000611463565b565b6000600560009054906101000a900473ffffffffffffffffffffffffffffffffffffffff16905090565b60078054610a8290612d99565b80601f0160208091040260200160405190810160405280929190818152602001828054610aae90612d99565b8015610afb5780601f10610ad057610100808354040283529160200191610afb565b820191906000526020600020905b815481529060010190602001808311610ade57829003601f168201915b505050505081565b600960009054906101000a900460ff16610b52576040517f08c379a0000000000000000000000000000000000000000000000000000000008152600401610b4990612fe0565b60405180910390fd5b346008541115610b97576040517f08c379a0000000000000000000000000000000000000000000000000000000008152600401610b8e9061304c565b60405180910390fd5b610ba081611529565b15610be0576040517f08c379a0000000000000000000000000000000000000000000000000000000008152600401610bd7906130b8565b60405180910390fd5b33600a600083815260200190815260200160002060006101000a81548173ffffffffffffffffffffffffffffffffffffffff021916908373ffffffffffffffffffffffffffffffffffffffff160217905550610c4e3382600160405180602001604052806000815250611595565b610c7f81610c5b83611745565b604051602001610c6b9190613160565b604051602081830303815290604052611813565b6001600b600083815260200190815260200160002081905550803373ffffffffffffffffffffffffffffffffffffffff167f30385c845b448a36257a6a1716e6ad2e1bc2cbe333cde1e69fe849ad6511adfe60405160405180910390a350565b610cf1610cea6110a9565b8383611878565b5050565b6000600b6000838152602001908152602001600020549050919050565b6000600160008473ffffffffffffffffffffffffffffffffffffffff1673ffffffffffffffffffffffffffffffffffffffff16815260200190815260200160002060008373ffffffffffffffffffffffffffffffffffffffff1673ffffffffffffffffffffffffffffffffffffffff16815260200190815260200160002060009054906101000a900460ff16905092915050565b610dae6110a9565b73ffffffffffffffffffffffffffffffffffffffff168573ffffffffffffffffffffffffffffffffffffffff161480610df45750610df385610dee6110a9565b610d12565b5b610e33576040517f08c379a0000000000000000000000000000000000000000000000000000000008152600401610e2a90612e3c565b60405180910390fd5b610e4085858585856119e4565b5050505050565b610e4f6113d2565b600073ffffffffffffffffffffffffffffffffffffffff168173ffffffffffffffffffffffffffffffffffffffff1603610ebe576040517f08c379a0000000000000000000000000000000000000000000000000000000008152600401610eb5906131f4565b60405180910390fd5b610ec781611463565b50565b610ed26113d2565b8060088190555050565b600a6020528060005260406000206000915054906101000a900473ffffffffffffffffffffffffffffffffffffffff1681565b60007f01ffc9a7000000000000000000000000000000000000000000000000000000007bffffffffffffffffffffffffffffffffffffffffffffffffffffffff1916827bffffffffffffffffffffffffffffffffffffffffffffffffffffffff1916149050919050565b610f8281611529565b610fc1576040517f08c379a0000000000000000000000000000000000000000000000000000000008152600401610fb890613260565b60405180910390fd5b50565b60606000600460008481526020019081526020016000208054610fe690612d99565b80601f016020809104026020016040519081016040528092919081815260200182805461101290612d99565b801561105f5780601f106110345761010080835404028352916020019161105f565b820191906000526020600020905b81548152906001019060200180831161104257829003601f168201915b50505050509050600081511161107d5761107883611c7f565b6110a1565b600381604051602001611091929190613318565b6040516020818303038152906040525b915050919050565b600033905090565b81518351146110f5576040517f08c379a00000000000000000000000000000000000000000000000000000000081526004016110ec906133ae565b60405180910390fd5b600073ffffffffffffffffffffffffffffffffffffffff168473ffffffffffffffffffffffffffffffffffffffff1603611164576040517f08c379a000000000000000000000000000000000000000000000000000000000815260040161115b90613440565b60405180910390fd5b600061116e6110a9565b905061117e818787878787611d13565b60005b845181101561132f57600085828151811061119f5761119e612eee565b5b6020026020010151905060008583815181106111be576111bd612eee565b5b60200260200101519050600080600084815260200190815260200160002060008b73ffffffffffffffffffffffffffffffffffffffff1673ffffffffffffffffffffffffffffffffffffffff1681526020019081526020016000205490508181101561125f576040517f08c379a0000000000000000000000000000000000000000000000000000000008152600401611256906134d2565b60405180910390fd5b81810360008085815260200190815260200160002060008c73ffffffffffffffffffffffffffffffffffffffff1673ffffffffffffffffffffffffffffffffffffffff168152602001908152602001600020819055508160008085815260200190815260200160002060008b73ffffffffffffffffffffffffffffffffffffffff1673ffffffffffffffffffffffffffffffffffffffff168152602001908152602001600020600082825461131491906134f2565b925050819055505050508061132890612f4c565b9050611181565b508473ffffffffffffffffffffffffffffffffffffffff168673ffffffffffffffffffffffffffffffffffffffff168273ffffffffffffffffffffffffffffffffffffffff167f4a39dc06d4c0dbc64b70af90fd698a233a518aa5d07e595d983b8c0526c8f7fb87876040516113a6929190613526565b60405180910390a46113bc818787878787611d1b565b6113ca818787878787611d23565b505050505050565b6113da6110a9565b73ffffffffffffffffffffffffffffffffffffffff166113f8610a4b565b73ffffffffffffffffffffffffffffffffffffffff161461144e576040517f08c379a0000000000000000000000000000000000000000000000000000000008152600401611445906135a9565b60405180910390fd5b565b806003908161145f9190613760565b5050565b6000600560009054906101000a900473ffffffffffffffffffffffffffffffffffffffff16905081600560006101000a81548173ffffffffffffffffffffffffffffffffffffffff021916908373ffffffffffffffffffffffffffffffffffffffff1602179055508173ffffffffffffffffffffffffffffffffffffffff168173ffffffffffffffffffffffffffffffffffffffff167f8be0079c531659141344cd1fd0a4f28419497f9722a3daafe3b4186f6b6457e060405160405180910390a35050565b60008073ffffffffffffffffffffffffffffffffffffffff16600a600084815260200190815260200160002060009054906101000a900473ffffffffffffffffffffffffffffffffffffffff1673ffffffffffffffffffffffffffffffffffffffff1614159050919050565b600073ffffffffffffffffffffffffffffffffffffffff168473ffffffffffffffffffffffffffffffffffffffff1603611604576040517f08c379a00000000000000000000000000000000000000000000000000000000081526004016115fb906138a4565b60405180910390fd5b600061160e6110a9565b9050600061161b85611efa565b9050600061162885611efa565b905061163983600089858589611d13565b8460008088815260200190815260200160002060008973ffffffffffffffffffffffffffffffffffffffff1673ffffffffffffffffffffffffffffffffffffffff168152602001908152602001600020600082825461169891906134f2565b925050819055508673ffffffffffffffffffffffffffffffffffffffff16600073ffffffffffffffffffffffffffffffffffffffff168473ffffffffffffffffffffffffffffffffffffffff167fc3d58168c5ae7397731d063d5bbf3d657854427343f4c083240f7aacaa2d0f6289896040516117169291906138c4565b60405180910390a461172d83600089858589611d1b565b61173c83600089898989611f74565b50505050505050565b6060600060016117548461214b565b01905060008167ffffffffffffffff81111561177357611772612572565b5b6040519080825280601f01601f1916602001820160405280156117a55781602001600182028036833780820191505090505b509050600082602001820190505b600115611808578080600190039150507f3031323334353637383961626364656600000000000000000000000000000000600a86061a8153600a85816117fc576117fb6138ed565b5b049450600085036117b3575b819350505050919050565b806004600084815260200190815260200160002090816118339190613760565b50817f6bb7ff708619ba0610cba295a58592e0451dee2622938c8755667688daf3529b61185f84610792565b60405161186c919061251e565b60405180910390a25050565b8173ffffffffffffffffffffffffffffffffffffffff168373ffffffffffffffffffffffffffffffffffffffff16036118e6576040517f08c379a00000000000000000000000000000000000000000000000000000000081526004016118dd9061398e565b60405180910390fd5b80600160008573ffffffffffffffffffffffffffffffffffffffff1673ffffffffffffffffffffffffffffffffffffffff16815260200190815260200160002060008473ffffffffffffffffffffffffffffffffffffffff1673ffffffffffffffffffffffffffffffffffffffff16815260200190815260200160002060006101000a81548160ff0219169083151502179055508173ffffffffffffffffffffffffffffffffffffffff168373ffffffffffffffffffffffffffffffffffffffff167f17307eab39ab6107e8899845ad3d59bd9653f200f220920489ca2b5937696c31836040516119d79190612473565b60405180910390a3505050565b600073ffffffffffffffffffffffffffffffffffffffff168473ffffffffffffffffffffffffffffffffffffffff1603611a53576040517f08c379a0000000000000000000000000000000000000000000000000000000008152600401611a4a90613440565b60405180910390fd5b6000611a5d6110a9565b90506000611a6a85611efa565b90506000611a7785611efa565b9050611a87838989858589611d13565b600080600088815260200190815260200160002060008a73ffffffffffffffffffffffffffffffffffffffff1673ffffffffffffffffffffffffffffffffffffffff16815260200190815260200160002054905085811015611b1e576040517f08c379a0000000000000000000000000000000000000000000000000000000008152600401611b15906134d2565b60405180910390fd5b85810360008089815260200190815260200160002060008b73ffffffffffffffffffffffffffffffffffffffff1673ffffffffffffffffffffffffffffffffffffffff168152602001908152602001600020819055508560008089815260200190815260200160002060008a73ffffffffffffffffffffffffffffffffffffffff1673ffffffffffffffffffffffffffffffffffffffff1681526020019081526020016000206000828254611bd391906134f2565b925050819055508773ffffffffffffffffffffffffffffffffffffffff168973ffffffffffffffffffffffffffffffffffffffff168573ffffffffffffffffffffffffffffffffffffffff167fc3d58168c5ae7397731d063d5bbf3d657854427343f4c083240f7aacaa2d0f628a8a604051611c509291906138c4565b60405180910390a4611c66848a8a86868a611d1b565b611c74848a8a8a8a8a611f74565b505050505050505050565b606060028054611c8e90612d99565b80601f0160208091040260200160405190810160405280929190818152602001828054611cba90612d99565b8015611d075780601f10611cdc57610100808354040283529160200191611d07565b820191906000526020600020905b815481529060010190602001808311611cea57829003601f168201915b50505050509050919050565b505050505050565b505050505050565b611d428473ffffffffffffffffffffffffffffffffffffffff1661229e565b15611ef2578373ffffffffffffffffffffffffffffffffffffffff1663bc197c8187878686866040518663ffffffff1660e01b8152600401611d88959493929190613a03565b6020604051808303816000875af1925050508015611dc457506040513d601f19601f82011682018060405250810190611dc19190613a80565b60015b611e6957611dd0613aba565b806308c379a003611e2c5750611de4613adc565b80611def5750611e2e565b806040517f08c379a0000000000000000000000000000000000000000000000000000000008152600401611e23919061251e565b60405180910390fd5b505b6040517f08c379a0000000000000000000000000000000000000000000000000000000008152600401611e6090613bde565b60405180910390fd5b63bc197c8160e01b7bffffffffffffffffffffffffffffffffffffffffffffffffffffffff1916817bffffffffffffffffffffffffffffffffffffffffffffffffffffffff191614611ef0576040517f08c379a0000000000000000000000000000000000000000000000000000000008152600401611ee790613c70565b60405180910390fd5b505b505050505050565b60606000600167ffffffffffffffff811115611f1957611f18612572565b5b604051908082528060200260200182016040528015611f475781602001602082028036833780820191505090505b5090508281600081518110611f5f57611f5e612eee565b5b60200260200101818152505080915050919050565b611f938473ffffffffffffffffffffffffffffffffffffffff1661229e565b15612143578373ffffffffffffffffffffffffffffffffffffffff1663f23a6e6187878686866040518663ffffffff1660e01b8152600401611fd9959493929190613c90565b6020604051808303816000875af192505050801561201557506040513d601f19601f820116820180604052508101906120129190613a80565b60015b6120ba57612021613aba565b806308c379a00361207d5750612035613adc565b80612040575061207f565b806040517f08c379a0000000000000000000000000000000000000000000000000000000008152600401612074919061251e565b60405180910390fd5b505b6040517f08c379a00000000000000000000000000000000000000000000000000000000081526004016120b190613bde565b60405180910390fd5b63f23a6e6160e01b7bffffffffffffffffffffffffffffffffffffffffffffffffffffffff1916817bffffffffffffffffffffffffffffffffffffffffffffffffffffffff191614612141576040517f08c379a000000000000000000000000000000000000000000000000000000000815260040161213890613c70565b60405180910390fd5b505b505050505050565b600080600090507a184f03e93ff9f4daa797ed6e38ed64bf6a1f01000000000000000083106121a9577a184f03e93ff9f4daa797ed6e38ed64bf6a1f010000000000000000838161219f5761219e6138ed565b5b0492506040810190505b6d04ee2d6d415b85acef810000000083106121e6576d04ee2d6d415b85acef810000000083816121dc576121db6138ed565b5b0492506020810190505b662386f26fc10000831061221557662386f26fc10000838161220b5761220a6138ed565b5b0492506010810190505b6305f5e100831061223e576305f5e1008381612234576122336138ed565b5b0492506008810190505b6127108310612263576127108381612259576122586138ed565b5b0492506004810190505b60648310612286576064838161227c5761227b6138ed565b5b0492506002810190505b600a8310612295576001810190505b80915050919050565b6000808273ffffffffffffffffffffffffffffffffffffffff163b119050919050565b6000604051905090565b600080fd5b600080fd5b600073ffffffffffffffffffffffffffffffffffffffff82169050919050565b6000612300826122d5565b9050919050565b612310816122f5565b811461231b57600080fd5b50565b60008135905061232d81612307565b92915050565b6000819050919050565b61234681612333565b811461235157600080fd5b50565b6000813590506123638161233d565b92915050565b600080604083850312156123805761237f6122cb565b5b600061238e8582860161231e565b925050602061239f85828601612354565b9150509250929050565b6123b281612333565b82525050565b60006020820190506123cd60008301846123a9565b92915050565b60007fffffffff0000000000000000000000000000000000000000000000000000000082169050919050565b612408816123d3565b811461241357600080fd5b50565b600081359050612425816123ff565b92915050565b600060208284031215612441576124406122cb565b5b600061244f84828501612416565b91505092915050565b60008115159050919050565b61246d81612458565b82525050565b60006020820190506124886000830184612464565b92915050565b600081519050919050565b600082825260208201905092915050565b60005b838110156124c85780820151818401526020810190506124ad565b60008484015250505050565b6000601f19601f8301169050919050565b60006124f08261248e565b6124fa8185612499565b935061250a8185602086016124aa565b612513816124d4565b840191505092915050565b6000602082019050818103600083015261253881846124e5565b905092915050565b600060208284031215612556576125556122cb565b5b600061256484828501612354565b91505092915050565b600080fd5b7f4e487b7100000000000000000000000000000000000000000000000000000000600052604160045260246000fd5b6125aa826124d4565b810181811067ffffffffffffffff821117156125c9576125c8612572565b5b80604052505050565b60006125dc6122c1565b90506125e882826125a1565b919050565b600067ffffffffffffffff82111561260857612607612572565b5b602082029050602081019050919050565b600080fd5b600061263161262c846125ed565b6125d2565b9050808382526020820190506020840283018581111561265457612653612619565b5b835b8181101561267d57806126698882612354565b845260208401935050602081019050612656565b5050509392505050565b600082601f83011261269c5761269b61256d565b5b81356126ac84826020860161261e565b91505092915050565b600080fd5b600067ffffffffffffffff8211156126d5576126d4612572565b5b6126de826124d4565b9050602081019050919050565b82818337600083830152505050565b600061270d612708846126ba565b6125d2565b905082815260208101848484011115612729576127286126b5565b5b6127348482856126eb565b509392505050565b600082601f8301126127515761275061256d565b5b81356127618482602086016126fa565b91505092915050565b600080600080600060a08688031215612786576127856122cb565b5b60006127948882890161231e565b95505060206127a58882890161231e565b945050604086013567ffffffffffffffff8111156127c6576127c56122d0565b5b6127d288828901612687565b935050606086013567ffffffffffffffff8111156127f3576127f26122d0565b5b6127ff88828901612687565b925050608086013567ffffffffffffffff8111156128205761281f6122d0565b5b61282c8882890161273c565b9150509295509295909350565b600067ffffffffffffffff82111561285457612853612572565b5b602082029050602081019050919050565b600061287861287384612839565b6125d2565b9050808382526020820190506020840283018581111561289b5761289a612619565b5b835b818110156128c457806128b0888261231e565b84526020840193505060208101905061289d565b5050509392505050565b600082601f8301126128e3576128e261256d565b5b81356128f3848260208601612865565b91505092915050565b60008060408385031215612913576129126122cb565b5b600083013567ffffffffffffffff811115612931576129306122d0565b5b61293d858286016128ce565b925050602083013567ffffffffffffffff81111561295e5761295d6122d0565b5b61296a85828601612687565b9150509250929050565b600081519050919050565b600082825260208201905092915050565b6000819050602082019050919050565b6129a981612333565b82525050565b60006129bb83836129a0565b60208301905092915050565b6000602082019050919050565b60006129df82612974565b6129e9818561297f565b93506129f483612990565b8060005b83811015612a25578151612a0c88826129af565b9750612a17836129c7565b9250506001810190506129f8565b5085935050505092915050565b60006020820190508181036000830152612a4c81846129d4565b905092915050565b600067ffffffffffffffff821115612a6f57612a6e612572565b5b612a78826124d4565b9050602081019050919050565b6000612a98612a9384612a54565b6125d2565b905082815260208101848484011115612ab457612ab36126b5565b5b612abf8482856126eb565b509392505050565b600082601f830112612adc57612adb61256d565b5b8135612aec848260208601612a85565b91505092915050565b600060208284031215612b0b57612b0a6122cb565b5b600082013567ffffffffffffffff811115612b2957612b286122d0565b5b612b3584828501612ac7565b91505092915050565b612b47816122f5565b82525050565b6000602082019050612b626000830184612b3e565b92915050565b612b7181612458565b8114612b7c57600080fd5b50565b600081359050612b8e81612b68565b92915050565b60008060408385031215612bab57612baa6122cb565b5b6000612bb98582860161231e565b9250506020612bca85828601612b7f565b9150509250929050565b60008060408385031215612beb57612bea6122cb565b5b6000612bf98582860161231e565b9250506020612c0a8582860161231e565b9150509250929050565b600080600080600060a08688031215612c3057612c2f6122cb565b5b6000612c3e8882890161231e565b9550506020612c4f8882890161231e565b9450506040612c6088828901612354565b9350506060612c7188828901612354565b925050608086013567ffffffffffffffff811115612c9257612c916122d0565b5b612c9e8882890161273c565b9150509295509295909350565b600060208284031215612cc157612cc06122cb565b5b6000612ccf8482850161231e565b91505092915050565b7f455243313135353a2061646472657373207a65726f206973206e6f742061207660008201527f616c6964206f776e657200000000000000000000000000000000000000000000602082015250565b6000612d34602a83612499565b9150612d3f82612cd8565b604082019050919050565b60006020820190508181036000830152612d6381612d27565b9050919050565b7f4e487b7100000000000000000000000000000000000000000000000000000000600052602260045260246000fd5b60006002820490506001821680612db157607f821691505b602082108103612dc457612dc3612d6a565b5b50919050565b7f455243313135353a2063616c6c6572206973206e6f7420746f6b656e206f776e60008201527f6572206f7220617070726f766564000000000000000000000000000000000000602082015250565b6000612e26602e83612499565b9150612e3182612dca565b604082019050919050565b60006020820190508181036000830152612e5581612e19565b9050919050565b7f455243313135353a206163636f756e747320616e6420696473206c656e67746860008201527f206d69736d617463680000000000000000000000000000000000000000000000602082015250565b6000612eb8602983612499565b9150612ec382612e5c565b604082019050919050565b60006020820190508181036000830152612ee781612eab565b9050919050565b7f4e487b7100000000000000000000000000000000000000000000000000000000600052603260045260246000fd5b7f4e487b7100000000000000000000000000000000000000000000000000000000600052601160045260246000fd5b6000612f5782612333565b91507fffffffffffffffffffffffffffffffffffffffffffffffffffffffffffffffff8203612f8957612f88612f1d565b5b600182019050919050565b7f4d696e74206d7573742062652061637469766520746f206d696e740000000000600082015250565b6000612fca601b83612499565b9150612fd582612f94565b602082019050919050565b60006020820190508181036000830152612ff981612fbd565b9050919050565b7f56616c75652073656e74206973206e6f7420636f727265637400000000000000600082015250565b6000613036601983612499565b915061304182613000565b602082019050919050565b6000602082019050818103600083015261306581613029565b9050919050565b7f57696e6520616c7265616479206d696e74656400000000000000000000000000600082015250565b60006130a2601383612499565b91506130ad8261306c565b602082019050919050565b600060208201905081810360008301526130d181613095565b9050919050565b600081905092915050565b60006130ee8261248e565b6130f881856130d8565b93506131088185602086016124aa565b80840191505092915050565b7f2e6a736f6e000000000000000000000000000000000000000000000000000000600082015250565b600061314a6005836130d8565b915061315582613114565b600582019050919050565b600061316c82846130e3565b91506131778261313d565b915081905092915050565b7f4f776e61626c653a206e6577206f776e657220697320746865207a65726f206160008201527f6464726573730000000000000000000000000000000000000000000000000000602082015250565b60006131de602683612499565b91506131e982613182565b604082019050919050565b6000602082019050818103600083015261320d816131d1565b9050919050565b7f496e76616c696420746f6b656e20494400000000000000000000000000000000600082015250565b600061324a601083612499565b915061325582613214565b602082019050919050565b600060208201905081810360008301526132798161323d565b9050919050565b60008190508160005260206000209050919050565b600081546132a281612d99565b6132ac81866130d8565b945060018216600081146132c757600181146132dc5761330f565b60ff198316865281151582028601935061330f565b6132e585613280565b60005b83811015613307578154818901526001820191506020810190506132e8565b838801955050505b50505092915050565b60006133248285613295565b915061333082846130e3565b91508190509392505050565b7f455243313135353a2069647320616e6420616d6f756e7473206c656e6774682060008201527f6d69736d61746368000000000000000000000000000000000000000000000000602082015250565b6000613398602883612499565b91506133a38261333c565b604082019050919050565b600060208201905081810360008301526133c78161338b565b9050919050565b7f455243313135353a207472616e7366657220746f20746865207a65726f20616460008201527f6472657373000000000000000000000000000000000000000000000000000000602082015250565b600061342a602583612499565b9150613435826133ce565b604082019050919050565b600060208201905081810360008301526134598161341d565b9050919050565b7f455243313135353a20696e73756666696369656e742062616c616e636520666f60008201527f72207472616e7366657200000000000000000000000000000000000000000000602082015250565b60006134bc602a83612499565b91506134c782613460565b604082019050919050565b600060208201905081810360008301526134eb816134af565b9050919050565b60006134fd82612333565b915061350883612333565b92508282019050808211156135205761351f612f1d565b5b92915050565b6000604082019050818103600083015261354081856129d4565b9050818103602083015261355481846129d4565b90509392505050565b7f4f776e61626c653a2063616c6c6572206973206e6f7420746865206f776e6572600082015250565b6000613593602083612499565b915061359e8261355d565b602082019050919050565b600060208201905081810360008301526135c281613586565b9050919050565b60006020601f8301049050919050565b600082821b905092915050565b6000600883026136167fffffffffffffffffffffffffffffffffffffffffffffffffffffffffffffffff826135d9565b61362086836135d9565b95508019841693508086168417925050509392505050565b6000819050919050565b600061365d61365861365384612333565b613638565b612333565b9050919050565b6000819050919050565b61367783613642565b61368b61368382613664565b8484546135e6565b825550505050565b600090565b6136a0613693565b6136ab81848461366e565b505050565b5b818110156136cf576136c4600082613698565b6001810190506136b1565b5050565b601f821115613714576136e581613280565b6136ee846135c9565b810160208510156136fd578190505b613711613709856135c9565b8301826136b0565b50505b505050565b600082821c905092915050565b600061373760001984600802613719565b1980831691505092915050565b60006137508383613726565b9150826002028217905092915050565b6137698261248e565b67ffffffffffffffff81111561378257613781612572565b5b61378c8254612d99565b6137978282856136d3565b600060209050601f8311600181146137ca57600084156137b8578287015190505b6137c28582613744565b86555061382a565b601f1984166137d886613280565b60005b82811015613800578489015182556001820191506020850194506020810190506137db565b8683101561381d5784890151613819601f891682613726565b8355505b6001600288020188555050505b505050505050565b7f455243313135353a206d696e7420746f20746865207a65726f2061646472657360008201527f7300000000000000000000000000000000000000000000000000000000000000602082015250565b600061388e602183612499565b915061389982613832565b604082019050919050565b600060208201905081810360008301526138bd81613881565b9050919050565b60006040820190506138d960008301856123a9565b6138e660208301846123a9565b9392505050565b7f4e487b7100000000000000000000000000000000000000000000000000000000600052601260045260246000fd5b7f455243313135353a2073657474696e6720617070726f76616c2073746174757360008201527f20666f722073656c660000000000000000000000000000000000000000000000602082015250565b6000613978602983612499565b91506139838261391c565b604082019050919050565b600060208201905081810360008301526139a78161396b565b9050919050565b600081519050919050565b600082825260208201905092915050565b60006139d5826139ae565b6139df81856139b9565b93506139ef8185602086016124aa565b6139f8816124d4565b840191505092915050565b600060a082019050613a186000830188612b3e565b613a256020830187612b3e565b8181036040830152613a3781866129d4565b90508181036060830152613a4b81856129d4565b90508181036080830152613a5f81846139ca565b90509695505050505050565b600081519050613a7a816123ff565b92915050565b600060208284031215613a9657613a956122cb565b5b6000613aa484828501613a6b565b91505092915050565b60008160e01c9050919050565b600060033d1115613ad95760046000803e613ad6600051613aad565b90505b90565b600060443d10613b6957613aee6122c1565b60043d036004823e80513d602482011167ffffffffffffffff82111715613b16575050613b69565b808201805167ffffffffffffffff811115613b345750505050613b69565b80602083010160043d038501811115613b51575050505050613b69565b613b60826020018501866125a1565b82955050505050505b90565b7f455243313135353a207472616e7366657220746f206e6f6e2d4552433131353560008201527f526563656976657220696d706c656d656e746572000000000000000000000000602082015250565b6000613bc8603483612499565b9150613bd382613b6c565b604082019050919050565b60006020820190508181036000830152613bf781613bbb565b9050919050565b7f455243313135353a204552433131353552656365697665722072656a6563746560008201527f6420746f6b656e73000000000000000000000000000000000000000000000000602082015250565b6000613c5a602883612499565b9150613c6582613bfe565b604082019050919050565b60006020820190508181036000830152613c8981613c4d565b9050919050565b600060a082019050613ca56000830188612b3e565b613cb26020830187612b3e565b613cbf60408301866123a9565b613ccc60608301856123a9565b8181036080830152613cde81846139ca565b9050969550505050505056fea264697066735822122037f90bbcb91bad785f97255062587563e144e84ca6da7ff5aafbdf8d5bed825964736f6c63430008130033",
  "immutableReferences": {},
  "source": "// SPDX-License-Identifier: MIT\npragma solidity ^0.8.19;\n\nimport \"@openzeppelin/contracts/token/ERC1155/ERC1155.sol\";\nimport \"@openzeppelin/contracts/token/ERC1155/extensions/ERC1155URIStorage.sol\";\nimport \"@openzeppelin/contracts/access/Ownable.sol\";\nimport \"@openzeppelin/contracts/utils/Strings.sol\";\n\ncontract BSMWINE is ERC1155, ERC1155URIStorage, Ownable {\n    using Strings for uint256;\n\n    string public name = \"BSM-WINE\";\n\n    string public symbol = \"BSM\";\n\n    uint256 public mintPrice = 35000000000000000; // 0.035 ETH\n\n    bool public mintIsActive = false;\n\n    mapping(uint256 => address) public wineries;\n\n    mapping(uint256 => uint256) public _totalSupply;\n\n    event Minted(address indexed minter, uint256 indexed tokenId);\n\n    constructor (string memory _baseURI) ERC1155(_baseURI) {\n        _setBaseURI(_baseURI);\n    }\n\n    function _exists(uint256 tokenId) internal view virtual returns (bool) {\n        return wineries[tokenId] != address(0);\n    }\n\n    function _requireMinted(uint256 tokenId) internal view virtual {\n        require(_exists(tokenId), \"Invalid token ID\");\n    }\n\n    function setBaseURI(string memory baseURI) public onlyOwner {\n        _setBaseURI(baseURI);\n    }\n\n    function setMintPrice(uint256 _mintPrice) public onlyOwner {\n        mintPrice = _mintPrice;\n    }\n\n    function flipMintState() public onlyOwner {\n        mintIsActive = ! mintIsActive;\n    }\n\n    function withdraw() public onlyOwner {\n        uint balance = address(this).balance;\n\n        payable(msg.sender).transfer(balance);\n    }\n\n    function mint(uint256 tokenId) public payable {\n        require(mintIsActive, \"Mint must be active to mint\");\n        require(mintPrice <= msg.value, \"Value sent is not correct\");\n        require(!_exists(tokenId), \"Wine already minted\");\n\n        wineries[tokenId] = msg.sender;\n\n        _mint(msg.sender, tokenId, 1, \"\");\n        _setURI(tokenId, string(abi.encodePacked(tokenId.toString(), \".json\")));\n\n        _totalSupply[tokenId] = 1;\n\n        emit Minted(msg.sender, tokenId);\n    }\n\n    function uri(uint256 tokenId) public view virtual override(ERC1155, ERC1155URIStorage) returns (string memory) {\n        _requireMinted(tokenId);\n\n        return super.uri(tokenId);\n    }\n\n    function totalSupply(uint256 tokenId) public view returns (uint256) {\n        return _totalSupply[tokenId];\n    }\n}\n",
  "sourcePath": "/Users/ferranfg/Sites/bsm.ferranfigueredo.com/2023/25/practica/contracts/BSMWINE.sol",
  "compiler": {
    "name": "solc",
    "version": "0.8.19+commit.7dd6d404.Emscripten.clang"
  },
  "schemaVersion": "3.4.13",
  "updatedAt": "2023-06-29T17:36:37.091Z",
  "networkType": "ethereum",
  "devdoc": {
    "events": {
      "ApprovalForAll(address,address,bool)": {
        "details": "Emitted when `account` grants or revokes permission to `operator` to transfer their tokens, according to `approved`."
      },
      "TransferBatch(address,address,address,uint256[],uint256[])": {
        "details": "Equivalent to multiple {TransferSingle} events, where `operator`, `from` and `to` are the same for all transfers."
      },
      "TransferSingle(address,address,address,uint256,uint256)": {
        "details": "Emitted when `value` tokens of token type `id` are transferred from `from` to `to` by `operator`."
      },
      "URI(string,uint256)": {
        "details": "Emitted when the URI for token type `id` changes to `value`, if it is a non-programmatic URI. If an {URI} event was emitted for `id`, the standard https://eips.ethereum.org/EIPS/eip-1155#metadata-extensions[guarantees] that `value` will equal the value returned by {IERC1155MetadataURI-uri}."
      }
    },
    "kind": "dev",
    "methods": {
      "balanceOf(address,uint256)": {
        "details": "See {IERC1155-balanceOf}. Requirements: - `account` cannot be the zero address."
      },
      "balanceOfBatch(address[],uint256[])": {
        "details": "See {IERC1155-balanceOfBatch}. Requirements: - `accounts` and `ids` must have the same length."
      },
      "isApprovedForAll(address,address)": {
        "details": "See {IERC1155-isApprovedForAll}."
      },
      "owner()": {
        "details": "Returns the address of the current owner."
      },
      "renounceOwnership()": {
        "details": "Leaves the contract without owner. It will not be possible to call `onlyOwner` functions. Can only be called by the current owner. NOTE: Renouncing ownership will leave the contract without an owner, thereby disabling any functionality that is only available to the owner."
      },
      "safeBatchTransferFrom(address,address,uint256[],uint256[],bytes)": {
        "details": "See {IERC1155-safeBatchTransferFrom}."
      },
      "safeTransferFrom(address,address,uint256,uint256,bytes)": {
        "details": "See {IERC1155-safeTransferFrom}."
      },
      "setApprovalForAll(address,bool)": {
        "details": "See {IERC1155-setApprovalForAll}."
      },
      "supportsInterface(bytes4)": {
        "details": "See {IERC165-supportsInterface}."
      },
      "transferOwnership(address)": {
        "details": "Transfers ownership of the contract to a new account (`newOwner`). Can only be called by the current owner."
      }
    },
    "version": 1
  },
  "userdoc": {
    "kind": "user",
    "methods": {},
    "version": 1
  }
}