{
    "contractName": "IPFS",
    "abi": [
        {
            "inputs": [],
            "stateMutability": "nonpayable",
            "type": "constructor"
        },
        {
            "inputs": [],
            "name": "getHash",
            "outputs": [
                {
                    "internalType": "string",
                    "name": "x",
                    "type": "string"
                }
            ],
            "stateMutability": "view",
            "type": "function"
        },
        {
            "inputs": [],
            "name": "owner",
            "outputs": [
                {
                    "internalType": "address",
                    "name": "",
                    "type": "address"
                }
            ],
            "stateMutability": "view",
            "type": "function"
        },
        {
            "inputs": [
                {
                    "internalType": "string",
                    "name": "x",
                    "type": "string"
                }
            ],
            "name": "setHash",
            "outputs": [],
            "stateMutability": "nonpayable",
            "type": "function"
        }
    ],
    "bytecode": "608060405234801561001057600080fd5b50600180546001600160a01b03191633179055610420806100326000396000f3fe608060405234801561001057600080fd5b50600436106100415760003560e01c80631ed83fd4146100465780638da5cb5b1461005b578063d13319c41461008b575b600080fd5b6100596100543660046101a2565b6100a0565b005b60015461006e906001600160a01b031681565b6040516001600160a01b0390911681526020015b60405180910390f35b6100936100fa565b6040516100829190610253565b6001546001600160a01b031633146100ea5760405162461bcd60e51b81526020600482015260096024820152682737ba1037bbb732b960b91b604482015260640160405180910390fd5b60006100f6828261032a565b5050565b606060008054610109906102a1565b80601f0160208091040260200160405190810160405280929190818152602001828054610135906102a1565b80156101825780601f1061015757610100808354040283529160200191610182565b820191906000526020600020905b81548152906001019060200180831161016557829003601f168201915b5050505050905090565b634e487b7160e01b600052604160045260246000fd5b6000602082840312156101b457600080fd5b813567ffffffffffffffff808211156101cc57600080fd5b818401915084601f8301126101e057600080fd5b8135818111156101f2576101f261018c565b604051601f8201601f19908116603f0116810190838211818310171561021a5761021a61018c565b8160405282815287602084870101111561023357600080fd5b826020860160208301376000928101602001929092525095945050505050565b600060208083528351808285015260005b8181101561028057858101830151858201604001528201610264565b506000604082860101526040601f19601f8301168501019250505092915050565b600181811c908216806102b557607f821691505b6020821081036102d557634e487b7160e01b600052602260045260246000fd5b50919050565b601f82111561032557600081815260208120601f850160051c810160208610156103025750805b601f850160051c820191505b818110156103215782815560010161030e565b5050505b505050565b815167ffffffffffffffff8111156103445761034461018c565b6103588161035284546102a1565b846102db565b602080601f83116001811461038d57600084156103755750858301515b600019600386901b1c1916600185901b178555610321565b600085815260208120601f198616915b828110156103bc5788860151825594840194600190910190840161039d565b50858210156103da5787850151600019600388901b60f8161c191681555b5050505050600190811b0190555056fea26469706673582212203e0dc6984e2d25ddbc3fd06c9ded6cafb0f9b0320b103d1b6b28f3e76d77efa664736f6c63430008130033",
    "sourcePath": "/Users/ferranfg/Sites/bsm.ferranfigueredo.com/2023/23/demo/src/app/IPFS.sol",
    "compiler": {
        "name": "solc",
        "version": "0.8.19+commit.7dd6d404"
    },
    "functionHashes": {
        "getHash()": "d13319c4",
        "owner()": "8da5cb5b",
        "setHash(string)": "1ed83fd4"
    },
    "gasEstimates": {
        "creation": {
            "codeDepositCost": "211200",
            "executionCost": "24486",
            "totalCost": "235686"
        },
        "external": {
            "getHash()": "infinite",
            "owner()": "2326",
            "setHash(string)": "infinite"
        }
    }
}